{
  "contractName": "RockPaperScissorsv2",
  "abi": [
    {
      "anonymous": false,
      "inputs": [
        {
          "indexed": false,
          "internalType": "address",
          "name": "previousAdmin",
          "type": "address"
        },
        {
          "indexed": false,
          "internalType": "address",
          "name": "newAdmin",
          "type": "address"
        }
      ],
      "name": "AdminChanged",
      "type": "event"
    },
    {
      "anonymous": false,
      "inputs": [
        {
          "indexed": true,
          "internalType": "address",
          "name": "owner",
          "type": "address"
        },
        {
          "indexed": true,
          "internalType": "address",
          "name": "spender",
          "type": "address"
        },
        {
          "indexed": false,
          "internalType": "uint256",
          "name": "value",
          "type": "uint256"
        }
      ],
      "name": "Approval",
      "type": "event"
    },
    {
      "anonymous": false,
      "inputs": [
        {
          "indexed": true,
          "internalType": "address",
          "name": "beacon",
          "type": "address"
        }
      ],
      "name": "BeaconUpgraded",
      "type": "event"
    },
    {
      "anonymous": false,
      "inputs": [
        {
          "indexed": true,
          "internalType": "address",
          "name": "previousOwner",
          "type": "address"
        },
        {
          "indexed": true,
          "internalType": "address",
          "name": "newOwner",
          "type": "address"
        }
      ],
      "name": "OwnershipTransferred",
      "type": "event"
    },
    {
      "anonymous": false,
      "inputs": [
        {
          "indexed": true,
          "internalType": "address",
          "name": "from",
          "type": "address"
        },
        {
          "indexed": true,
          "internalType": "address",
          "name": "to",
          "type": "address"
        },
        {
          "indexed": false,
          "internalType": "uint256",
          "name": "value",
          "type": "uint256"
        }
      ],
      "name": "Transfer",
      "type": "event"
    },
    {
      "anonymous": false,
      "inputs": [
        {
          "indexed": true,
          "internalType": "address",
          "name": "implementation",
          "type": "address"
        }
      ],
      "name": "Upgraded",
      "type": "event"
    },
    {
      "inputs": [
        {
          "internalType": "address",
          "name": "owner",
          "type": "address"
        },
        {
          "internalType": "address",
          "name": "spender",
          "type": "address"
        }
      ],
      "name": "allowance",
      "outputs": [
        {
          "internalType": "uint256",
          "name": "",
          "type": "uint256"
        }
      ],
      "stateMutability": "view",
      "type": "function",
      "constant": true
    },
    {
      "inputs": [
        {
          "internalType": "address",
          "name": "spender",
          "type": "address"
        },
        {
          "internalType": "uint256",
          "name": "amount",
          "type": "uint256"
        }
      ],
      "name": "approve",
      "outputs": [
        {
          "internalType": "bool",
          "name": "",
          "type": "bool"
        }
      ],
      "stateMutability": "nonpayable",
      "type": "function"
    },
    {
      "inputs": [
        {
          "internalType": "address",
          "name": "account",
          "type": "address"
        }
      ],
      "name": "balanceOf",
      "outputs": [
        {
          "internalType": "uint256",
          "name": "",
          "type": "uint256"
        }
      ],
      "stateMutability": "view",
      "type": "function",
      "constant": true
    },
    {
      "inputs": [],
      "name": "decimals",
      "outputs": [
        {
          "internalType": "uint8",
          "name": "",
          "type": "uint8"
        }
      ],
      "stateMutability": "view",
      "type": "function",
      "constant": true
    },
    {
      "inputs": [
        {
          "internalType": "address",
          "name": "spender",
          "type": "address"
        },
        {
          "internalType": "uint256",
          "name": "subtractedValue",
          "type": "uint256"
        }
      ],
      "name": "decreaseAllowance",
      "outputs": [
        {
          "internalType": "bool",
          "name": "",
          "type": "bool"
        }
      ],
      "stateMutability": "nonpayable",
      "type": "function"
    },
    {
      "inputs": [
        {
          "internalType": "address",
          "name": "",
          "type": "address"
        }
      ],
      "name": "gameList",
      "outputs": [
        {
          "internalType": "uint256",
          "name": "timeStamp",
          "type": "uint256"
        },
        {
          "internalType": "uint256",
          "name": "tokenAmount",
          "type": "uint256"
        },
        {
          "internalType": "enum RockPaperScissorsv2.GameState",
          "name": "state",
          "type": "uint8"
        },
        {
          "internalType": "address payable",
          "name": "winner",
          "type": "address"
        },
        {
          "internalType": "address",
          "name": "opponent",
          "type": "address"
        },
        {
          "internalType": "enum RockPaperScissorsv2.Move",
          "name": "heroMove",
          "type": "uint8"
        },
        {
          "internalType": "enum RockPaperScissorsv2.Move",
          "name": "opponentMove",
          "type": "uint8"
        }
      ],
      "stateMutability": "view",
      "type": "function",
      "constant": true
    },
    {
      "inputs": [
        {
          "internalType": "address",
          "name": "spender",
          "type": "address"
        },
        {
          "internalType": "uint256",
          "name": "addedValue",
          "type": "uint256"
        }
      ],
      "name": "increaseAllowance",
      "outputs": [
        {
          "internalType": "bool",
          "name": "",
          "type": "bool"
        }
      ],
      "stateMutability": "nonpayable",
      "type": "function"
    },
    {
      "inputs": [],
      "name": "name",
      "outputs": [
        {
          "internalType": "string",
          "name": "",
          "type": "string"
        }
      ],
      "stateMutability": "view",
      "type": "function",
      "constant": true
    },
    {
      "inputs": [],
      "name": "owner",
      "outputs": [
        {
          "internalType": "address",
          "name": "",
          "type": "address"
        }
      ],
      "stateMutability": "view",
      "type": "function",
      "constant": true
    },
    {
      "inputs": [],
      "name": "renounceOwnership",
      "outputs": [],
      "stateMutability": "nonpayable",
      "type": "function"
    },
    {
      "inputs": [],
      "name": "symbol",
      "outputs": [
        {
          "internalType": "string",
          "name": "",
          "type": "string"
        }
      ],
      "stateMutability": "view",
      "type": "function",
      "constant": true
    },
    {
      "inputs": [],
      "name": "totalSupply",
      "outputs": [
        {
          "internalType": "uint256",
          "name": "",
          "type": "uint256"
        }
      ],
      "stateMutability": "view",
      "type": "function",
      "constant": true
    },
    {
      "inputs": [
        {
          "internalType": "address",
          "name": "recipient",
          "type": "address"
        },
        {
          "internalType": "uint256",
          "name": "amount",
          "type": "uint256"
        }
      ],
      "name": "transfer",
      "outputs": [
        {
          "internalType": "bool",
          "name": "",
          "type": "bool"
        }
      ],
      "stateMutability": "nonpayable",
      "type": "function"
    },
    {
      "inputs": [
        {
          "internalType": "address",
          "name": "sender",
          "type": "address"
        },
        {
          "internalType": "address",
          "name": "recipient",
          "type": "address"
        },
        {
          "internalType": "uint256",
          "name": "amount",
          "type": "uint256"
        }
      ],
      "name": "transferFrom",
      "outputs": [
        {
          "internalType": "bool",
          "name": "",
          "type": "bool"
        }
      ],
      "stateMutability": "nonpayable",
      "type": "function"
    },
    {
      "inputs": [
        {
          "internalType": "address",
          "name": "newOwner",
          "type": "address"
        }
      ],
      "name": "transferOwnership",
      "outputs": [],
      "stateMutability": "nonpayable",
      "type": "function"
    },
    {
      "inputs": [
        {
          "internalType": "address",
          "name": "newImplementation",
          "type": "address"
        }
      ],
      "name": "upgradeTo",
      "outputs": [],
      "stateMutability": "nonpayable",
      "type": "function"
    },
    {
      "inputs": [
        {
          "internalType": "address",
          "name": "newImplementation",
          "type": "address"
        },
        {
          "internalType": "bytes",
          "name": "data",
          "type": "bytes"
        }
      ],
      "name": "upgradeToAndCall",
      "outputs": [],
      "stateMutability": "payable",
      "type": "function",
      "payable": true
    },
    {
      "inputs": [],
      "name": "initialize",
      "outputs": [],
      "stateMutability": "nonpayable",
      "type": "function"
    },
    {
      "inputs": [],
      "name": "newGame",
      "outputs": [
        {
          "internalType": "bool",
          "name": "",
          "type": "bool"
        }
      ],
      "stateMutability": "payable",
      "type": "function",
      "payable": true
    },
    {
      "inputs": [
        {
          "internalType": "address",
          "name": "_gameOwner",
          "type": "address"
        }
      ],
      "name": "joinGame",
      "outputs": [
        {
          "internalType": "bool",
          "name": "",
          "type": "bool"
        }
      ],
      "stateMutability": "payable",
      "type": "function",
      "payable": true
    },
    {
      "inputs": [
        {
          "internalType": "address",
          "name": "_gameOwner",
          "type": "address"
        }
      ],
      "name": "newFeature",
      "outputs": [
        {
          "internalType": "bool",
          "name": "",
          "type": "bool"
        }
      ],
      "stateMutability": "payable",
      "type": "function",
      "payable": true
    },
    {
      "inputs": [
        {
          "internalType": "address",
          "name": "_gameOwner",
          "type": "address"
        },
        {
          "internalType": "enum RockPaperScissorsv2.Move",
          "name": "_move",
          "type": "uint8"
        }
      ],
      "name": "move",
      "outputs": [
        {
          "internalType": "bool",
          "name": "",
          "type": "bool"
        }
      ],
      "stateMutability": "nonpayable",
      "type": "function"
    },
    {
      "inputs": [
        {
          "internalType": "address",
          "name": "_gameOwner",
          "type": "address"
        },
        {
          "internalType": "address",
          "name": "_opponent",
          "type": "address"
        }
      ],
      "name": "playEachOther",
      "outputs": [
        {
          "internalType": "bool",
          "name": "",
          "type": "bool"
        }
      ],
      "stateMutability": "payable",
      "type": "function",
      "payable": true
    },
    {
      "inputs": [
        {
          "internalType": "address",
          "name": "_gameOwner",
          "type": "address"
        }
      ],
      "name": "betLastMove",
      "outputs": [
        {
          "internalType": "bool",
          "name": "",
          "type": "bool"
        }
      ],
      "stateMutability": "nonpayable",
      "type": "function"
    }
  ],
  "bytecode": "0x608060405234801561001057600080fd5b50614985806100206000396000f3fe60806040526004361061014b5760003560e01c806370a08231116100b6578063a457c2d71161006f578063a457c2d714610479578063a9059cbb146104b6578063dd62ed3e146104f3578063de1d66d914610530578063ea01a64814610573578063f2fde38b146105b05761014b565b806370a082311461039a578063715018a6146103d75780637d03f5f3146103ee5780638129fc1c1461040c5780638da5cb5b1461042357806395d89b411461044e5761014b565b8063313ce56711610108578063313ce5671461028d5780633659cfe6146102b857806339509351146102e15780634f1ef2861461031e57806361eeb0101461033a57806364ec29bb1461036a5761014b565b806306fdde0314610150578063095ea7b31461017b57806318160ddd146101b85780632389a290146101e357806323b872dd146102135780632a44001314610250575b600080fd5b34801561015c57600080fd5b506101656105d9565b6040516101729190613c09565b60405180910390f35b34801561018757600080fd5b506101a2600480360381019061019d91906137ca565b61066b565b6040516101af9190613bee565b60405180910390f35b3480156101c457600080fd5b506101cd610689565b6040516101da9190613ecb565b60405180910390f35b6101fd60048036038101906101f8919061366e565b610693565b60405161020a9190613bee565b60405180910390f35b34801561021f57600080fd5b5061023a600480360381019061023591906136db565b6106aa565b6040516102479190613bee565b60405180910390f35b34801561025c57600080fd5b506102776004803603810190610272919061366e565b6107a2565b6040516102849190613bee565b60405180910390f35b34801561029957600080fd5b506102a26108b7565b6040516102af9190613f55565b60405180910390f35b3480156102c457600080fd5b506102df60048036038101906102da919061366e565b6108c0565b005b3480156102ed57600080fd5b50610308600480360381019061030391906137ca565b6108e7565b6040516103159190613bee565b60405180910390f35b6103386004803603810190610333919061372e565b610993565b005b610354600480360381019061034f919061366e565b6109ac565b6040516103619190613bee565b60405180910390f35b610384600480360381019061037f919061369b565b6109c3565b6040516103919190613bee565b60405180910390f35b3480156103a657600080fd5b506103c160048036038101906103bc919061366e565b610a5b565b6040516103ce9190613ecb565b60405180910390f35b3480156103e357600080fd5b506103ec610aa4565b005b6103f6610b2c565b6040516104039190613bee565b60405180910390f35b34801561041857600080fd5b50610421610b40565b005b34801561042f57600080fd5b50610438610c31565b6040516104459190613bd3565b60405180910390f35b34801561045a57600080fd5b50610463610c5b565b6040516104709190613c09565b60405180910390f35b34801561048557600080fd5b506104a0600480360381019061049b91906137ca565b610ced565b6040516104ad9190613bee565b60405180910390f35b3480156104c257600080fd5b506104dd60048036038101906104d891906137ca565b610dd8565b6040516104ea9190613bee565b60405180910390f35b3480156104ff57600080fd5b5061051a6004803603810190610515919061369b565b610df6565b6040516105279190613ecb565b60405180910390f35b34801561053c57600080fd5b506105576004803603810190610552919061366e565b610e7d565b60405161056a9796959493929190613ee6565b60405180910390f35b34801561057f57600080fd5b5061059a6004803603810190610595919061378a565b610f26565b6040516105a79190613bee565b60405180910390f35b3480156105bc57600080fd5b506105d760048036038101906105d2919061366e565b611942565b005b6060603680546105e89061419b565b80601f01602080910402602001604051908101604052809291908181526020018280546106149061419b565b80156106615780601f1061063657610100808354040283529160200191610661565b820191906000526020600020905b81548152906001019060200180831161064457829003601f168201915b5050505050905090565b600061067f610678611a3a565b8484611a42565b6001905092915050565b6000603554905090565b60006106a0823334611c0d565b5060019050919050565b60006106b78484846121f6565b6000603460008673ffffffffffffffffffffffffffffffffffffffff1673ffffffffffffffffffffffffffffffffffffffff1681526020019081526020016000206000610702611a3a565b73ffffffffffffffffffffffffffffffffffffffff1673ffffffffffffffffffffffffffffffffffffffff16815260200190815260200160002054905082811015610782576040517f08c379a000000000000000000000000000000000000000000000000000000000815260040161077990613dab565b60405180910390fd5b6107968561078e611a3a565b858403611a42565b60019150509392505050565b60008060038111156107b7576107b661422d565b5b60fd60003373ffffffffffffffffffffffffffffffffffffffff1673ffffffffffffffffffffffffffffffffffffffff16815260200190815260200160002060009054906101000a900460ff1660038111156108165761081561422d565b5b1415610857576040517f08c379a000000000000000000000000000000000000000000000000000000000815260040161084e90613e0b565b60405180910390fd5b6108ad8260fd60003373ffffffffffffffffffffffffffffffffffffffff1673ffffffffffffffffffffffffffffffffffffffff16815260200190815260200160002060009054906101000a900460ff16610f26565b5060019050919050565b60006012905090565b6108c98161247a565b6108e4816040518060200160405280600081525060006124f9565b50565b60006109896108f4611a3a565b848460346000610902611a3a565b73ffffffffffffffffffffffffffffffffffffffff1673ffffffffffffffffffffffffffffffffffffffff16815260200190815260200160002060008873ffffffffffffffffffffffffffffffffffffffff1673ffffffffffffffffffffffffffffffffffffffff168152602001908152602001600020546109849190613ff8565b611a42565b6001905092915050565b61099c8261247a565b6109a8828260016124f9565b5050565b60006109b9823334611c0d565b5060019050919050565b60006109cf83346126ca565b508160fe60008573ffffffffffffffffffffffffffffffffffffffff1673ffffffffffffffffffffffffffffffffffffffff16815260200190815260200160002060030160006101000a81548173ffffffffffffffffffffffffffffffffffffffff021916908373ffffffffffffffffffffffffffffffffffffffff1602179055506001905092915050565b6000603360008373ffffffffffffffffffffffffffffffffffffffff1673ffffffffffffffffffffffffffffffffffffffff168152602001908152602001600020549050919050565b610aac611a3a565b73ffffffffffffffffffffffffffffffffffffffff16610aca610c31565b73ffffffffffffffffffffffffffffffffffffffff1614610b20576040517f08c379a0000000000000000000000000000000000000000000000000000000008152600401610b1790613dcb565b60405180910390fd5b610b2a6000612b15565b565b6000610b3833346126ca565b506001905090565b600060019054906101000a900460ff1680610b66575060008054906101000a900460ff16155b610ba5576040517f08c379a0000000000000000000000000000000000000000000000000000000008152600401610b9c90613d6b565b60405180910390fd5b60008060019054906101000a900460ff161590508015610bf5576001600060016101000a81548160ff02191690831515021790555060016000806101000a81548160ff0219169083151502179055505b603c60fb81905550610c05612bdb565b610c0d612cc4565b8015610c2e5760008060016101000a81548160ff0219169083151502179055505b50565b6000606560009054906101000a900473ffffffffffffffffffffffffffffffffffffffff16905090565b606060378054610c6a9061419b565b80601f0160208091040260200160405190810160405280929190818152602001828054610c969061419b565b8015610ce35780601f10610cb857610100808354040283529160200191610ce3565b820191906000526020600020905b815481529060010190602001808311610cc657829003601f168201915b5050505050905090565b60008060346000610cfc611a3a565b73ffffffffffffffffffffffffffffffffffffffff1673ffffffffffffffffffffffffffffffffffffffff16815260200190815260200160002060008573ffffffffffffffffffffffffffffffffffffffff1673ffffffffffffffffffffffffffffffffffffffff16815260200190815260200160002054905082811015610db9576040517f08c379a0000000000000000000000000000000000000000000000000000000008152600401610db090613eab565b60405180910390fd5b610dcd610dc4611a3a565b85858403611a42565b600191505092915050565b6000610dec610de5611a3a565b84846121f6565b6001905092915050565b6000603460008473ffffffffffffffffffffffffffffffffffffffff1673ffffffffffffffffffffffffffffffffffffffff16815260200190815260200160002060008373ffffffffffffffffffffffffffffffffffffffff1673ffffffffffffffffffffffffffffffffffffffff16815260200190815260200160002054905092915050565b60fe6020528060005260406000206000915090508060000154908060010154908060020160009054906101000a900460ff16908060020160019054906101000a900473ffffffffffffffffffffffffffffffffffffffff16908060030160009054906101000a900473ffffffffffffffffffffffffffffffffffffffff16908060030160149054906101000a900460ff16908060030160159054906101000a900460ff16905087565b600060026003811115610f3c57610f3b61422d565b5b60fe60008573ffffffffffffffffffffffffffffffffffffffff1673ffffffffffffffffffffffffffffffffffffffff16815260200190815260200160002060020160009054906101000a900460ff166003811115610f9e57610f9d61422d565b5b14610fde576040517f08c379a0000000000000000000000000000000000000000000000000000000008152600401610fd590613d0b565b60405180910390fd5b3373ffffffffffffffffffffffffffffffffffffffff1660fe60008573ffffffffffffffffffffffffffffffffffffffff1673ffffffffffffffffffffffffffffffffffffffff16815260200190815260200160002060030160009054906101000a900473ffffffffffffffffffffffffffffffffffffffff1673ffffffffffffffffffffffffffffffffffffffff1614806110a557508273ffffffffffffffffffffffffffffffffffffffff163373ffffffffffffffffffffffffffffffffffffffff16145b6110e4576040517f08c379a00000000000000000000000000000000000000000000000000000000081526004016110db90613c4b565b60405180910390fd5b3373ffffffffffffffffffffffffffffffffffffffff168373ffffffffffffffffffffffffffffffffffffffff161415611187578160fe60008573ffffffffffffffffffffffffffffffffffffffff1673ffffffffffffffffffffffffffffffffffffffff16815260200190815260200160002060030160146101000a81548160ff0219169083600381111561117d5761117c61422d565b5b02179055506111f2565b8160fe60008573ffffffffffffffffffffffffffffffffffffffff1673ffffffffffffffffffffffffffffffffffffffff16815260200190815260200160002060030160156101000a81548160ff021916908360038111156111ec576111eb61422d565b5b02179055505b600060fe60008573ffffffffffffffffffffffffffffffffffffffff1673ffffffffffffffffffffffffffffffffffffffff16815260200190815260200160002060030160149054906101000a900460ff169050600060fe60008673ffffffffffffffffffffffffffffffffffffffff1673ffffffffffffffffffffffffffffffffffffffff16815260200190815260200160002060030160159054906101000a900460ff169050600060fe60008773ffffffffffffffffffffffffffffffffffffffff1673ffffffffffffffffffffffffffffffffffffffff16815260200190815260200160002060030160009054906101000a900473ffffffffffffffffffffffffffffffffffffffff169050600060038111156113155761131461422d565b5b8360038111156113285761132761422d565b5b1415801561135b5750600060038111156113455761134461422d565b5b8260038111156113585761135761422d565b5b14155b156118ce57600061136e87838686612dad565b9050600360fe60008973ffffffffffffffffffffffffffffffffffffffff1673ffffffffffffffffffffffffffffffffffffffff16815260200190815260200160002060020160006101000a81548160ff021916908360038111156113d6576113d561422d565b5b0217905550600073ffffffffffffffffffffffffffffffffffffffff168173ffffffffffffffffffffffffffffffffffffffff16146114ee578060fe60008973ffffffffffffffffffffffffffffffffffffffff1673ffffffffffffffffffffffffffffffffffffffff16815260200190815260200160002060020160016101000a81548173ffffffffffffffffffffffffffffffffffffffff021916908373ffffffffffffffffffffffffffffffffffffffff1602179055506114e881600260fe60008b73ffffffffffffffffffffffffffffffffffffffff1673ffffffffffffffffffffffffffffffffffffffff168152602001908152602001600020600101546114e3919061404e565b612f1d565b506115eb565b61153a8760fe60008a73ffffffffffffffffffffffffffffffffffffffff1673ffffffffffffffffffffffffffffffffffffffff16815260200190815260200160002060010154612f1d565b506115e960fe60008973ffffffffffffffffffffffffffffffffffffffff1673ffffffffffffffffffffffffffffffffffffffff16815260200190815260200160002060030160009054906101000a900473ffffffffffffffffffffffffffffffffffffffff1660fe60008a73ffffffffffffffffffffffffffffffffffffffff1673ffffffffffffffffffffffffffffffffffffffff16815260200190815260200160002060010154612f1d565b505b60fc60fe60008973ffffffffffffffffffffffffffffffffffffffff1673ffffffffffffffffffffffffffffffffffffffff168152602001908152602001600020908060018154018082558091505060019003906000526020600020906004020160009091909190915060008201548160000155600182015481600101556002820160009054906101000a900460ff168160020160006101000a81548160ff021916908360038111156116a1576116a061422d565b5b02179055506002820160019054906101000a900473ffffffffffffffffffffffffffffffffffffffff168160020160016101000a81548173ffffffffffffffffffffffffffffffffffffffff021916908373ffffffffffffffffffffffffffffffffffffffff1602179055506003820160009054906101000a900473ffffffffffffffffffffffffffffffffffffffff168160030160006101000a81548173ffffffffffffffffffffffffffffffffffffffff021916908373ffffffffffffffffffffffffffffffffffffffff1602179055506003820160149054906101000a900460ff168160030160146101000a81548160ff021916908360038111156117ac576117ab61422d565b5b02179055506003820160159054906101000a900460ff168160030160156101000a81548160ff021916908360038111156117e9576117e861422d565b5b0217905550505060fe60008873ffffffffffffffffffffffffffffffffffffffff1673ffffffffffffffffffffffffffffffffffffffff16815260200190815260200160002060008082016000905560018201600090556002820160006101000a81549060ff02191690556002820160016101000a81549073ffffffffffffffffffffffffffffffffffffffff02191690556003820160006101000a81549073ffffffffffffffffffffffffffffffffffffffff02191690556003820160146101000a81549060ff02191690556003820160156101000a81549060ff02191690555050505b8460fd60003373ffffffffffffffffffffffffffffffffffffffff1673ffffffffffffffffffffffffffffffffffffffff16815260200190815260200160002060006101000a81548160ff021916908360038111156119305761192f61422d565b5b02179055506001935050505092915050565b61194a611a3a565b73ffffffffffffffffffffffffffffffffffffffff16611968610c31565b73ffffffffffffffffffffffffffffffffffffffff16146119be576040517f08c379a00000000000000000000000000000000000000000000000000000000081526004016119b590613dcb565b60405180910390fd5b600073ffffffffffffffffffffffffffffffffffffffff168173ffffffffffffffffffffffffffffffffffffffff161415611a2e576040517f08c379a0000000000000000000000000000000000000000000000000000000008152600401611a2590613c8b565b60405180910390fd5b611a3781612b15565b50565b600033905090565b600073ffffffffffffffffffffffffffffffffffffffff168373ffffffffffffffffffffffffffffffffffffffff161415611ab2576040517f08c379a0000000000000000000000000000000000000000000000000000000008152600401611aa990613e6b565b60405180910390fd5b600073ffffffffffffffffffffffffffffffffffffffff168273ffffffffffffffffffffffffffffffffffffffff161415611b22576040517f08c379a0000000000000000000000000000000000000000000000000000000008152600401611b1990613cab565b60405180910390fd5b80603460008573ffffffffffffffffffffffffffffffffffffffff1673ffffffffffffffffffffffffffffffffffffffff16815260200190815260200160002060008473ffffffffffffffffffffffffffffffffffffffff1673ffffffffffffffffffffffffffffffffffffffff168152602001908152602001600020819055508173ffffffffffffffffffffffffffffffffffffffff168373ffffffffffffffffffffffffffffffffffffffff167f8c5be1e5ebec7d5bd14f71427d1e84f3dd0314c0f7b2291e5b200ac8c7c3b92583604051611c009190613ecb565b60405180910390a3505050565b600060016003811115611c2357611c2261422d565b5b60ff60020160009054906101000a900460ff166003811115611c4857611c4761422d565b5b14611c88576040517f08c379a0000000000000000000000000000000000000000000000000000000008152600401611c7f90613d4b565b60405180910390fd5b60fe60008573ffffffffffffffffffffffffffffffffffffffff1673ffffffffffffffffffffffffffffffffffffffff16815260200190815260200160002060010154821015611d0d576040517f08c379a0000000000000000000000000000000000000000000000000000000008152600401611d0490613d2b565b60405180910390fd5b8273ffffffffffffffffffffffffffffffffffffffff168473ffffffffffffffffffffffffffffffffffffffff161415611d7c576040517f08c379a0000000000000000000000000000000000000000000000000000000008152600401611d7390613deb565b60405180910390fd5b600073ffffffffffffffffffffffffffffffffffffffff1660fe60008673ffffffffffffffffffffffffffffffffffffffff1673ffffffffffffffffffffffffffffffffffffffff16815260200190815260200160002060030160009054906101000a900473ffffffffffffffffffffffffffffffffffffffff1673ffffffffffffffffffffffffffffffffffffffff161480611ea657508273ffffffffffffffffffffffffffffffffffffffff1660fe60008673ffffffffffffffffffffffffffffffffffffffff1673ffffffffffffffffffffffffffffffffffffffff16815260200190815260200160002060030160009054906101000a900473ffffffffffffffffffffffffffffffffffffffff1673ffffffffffffffffffffffffffffffffffffffff16145b611ee5576040517f08c379a0000000000000000000000000000000000000000000000000000000008152600401611edc90613ccb565b60405180910390fd5b600260fe60008673ffffffffffffffffffffffffffffffffffffffff1673ffffffffffffffffffffffffffffffffffffffff16815260200190815260200160002060020160006101000a81548160ff02191690836003811115611f4b57611f4a61422d565b5b02179055508260fe60008673ffffffffffffffffffffffffffffffffffffffff1673ffffffffffffffffffffffffffffffffffffffff16815260200190815260200160002060030160006101000a81548173ffffffffffffffffffffffffffffffffffffffff021916908373ffffffffffffffffffffffffffffffffffffffff16021790555060fe60008573ffffffffffffffffffffffffffffffffffffffff1673ffffffffffffffffffffffffffffffffffffffff16815260200190815260200160002060fe60008573ffffffffffffffffffffffffffffffffffffffff1673ffffffffffffffffffffffffffffffffffffffff16815260200190815260200160002060008201548160000155600182015481600101556002820160009054906101000a900460ff168160020160006101000a81548160ff0219169083600381111561209b5761209a61422d565b5b02179055506002820160019054906101000a900473ffffffffffffffffffffffffffffffffffffffff168160020160016101000a81548173ffffffffffffffffffffffffffffffffffffffff021916908373ffffffffffffffffffffffffffffffffffffffff1602179055506003820160009054906101000a900473ffffffffffffffffffffffffffffffffffffffff168160030160006101000a81548173ffffffffffffffffffffffffffffffffffffffff021916908373ffffffffffffffffffffffffffffffffffffffff1602179055506003820160149054906101000a900460ff168160030160146101000a81548160ff021916908360038111156121a6576121a561422d565b5b02179055506003820160159054906101000a900460ff168160030160156101000a81548160ff021916908360038111156121e3576121e261422d565b5b0217905550905050600190509392505050565b600073ffffffffffffffffffffffffffffffffffffffff168373ffffffffffffffffffffffffffffffffffffffff161415612266576040517f08c379a000000000000000000000000000000000000000000000000000000000815260040161225d90613e4b565b60405180910390fd5b600073ffffffffffffffffffffffffffffffffffffffff168273ffffffffffffffffffffffffffffffffffffffff1614156122d6576040517f08c379a00000000000000000000000000000000000000000000000000000000081526004016122cd90613c2b565b60405180910390fd5b6122e1838383612f70565b6000603360008573ffffffffffffffffffffffffffffffffffffffff1673ffffffffffffffffffffffffffffffffffffffff16815260200190815260200160002054905081811015612368576040517f08c379a000000000000000000000000000000000000000000000000000000000815260040161235f90613ceb565b60405180910390fd5b818103603360008673ffffffffffffffffffffffffffffffffffffffff1673ffffffffffffffffffffffffffffffffffffffff1681526020019081526020016000208190555081603360008573ffffffffffffffffffffffffffffffffffffffff1673ffffffffffffffffffffffffffffffffffffffff16815260200190815260200160002060008282546123fd9190613ff8565b925050819055508273ffffffffffffffffffffffffffffffffffffffff168473ffffffffffffffffffffffffffffffffffffffff167fddf252ad1be2c89b69c2b068fc378daa952ba7f163c4a11628f55a4df523b3ef846040516124619190613ecb565b60405180910390a3612474848484612f75565b50505050565b612482611a3a565b73ffffffffffffffffffffffffffffffffffffffff166124a0610c31565b73ffffffffffffffffffffffffffffffffffffffff16146124f6576040517f08c379a00000000000000000000000000000000000000000000000000000000081526004016124ed90613dcb565b60405180910390fd5b50565b6000612503612f7a565b905061250e84612fd1565b60008351118061251b5750815b1561252c5761252a848461308a565b505b600061255a7f4910fdfa16fed3260ed0e7147f7cc6da11a60208b5b9406d12a635614ffd914360001b61316e565b90508060000160009054906101000a900460ff166126c35760018160000160006101000a81548160ff02191690831515021790555061262685836040516024016125a49190613bd3565b6040516020818303038152906040527f3659cfe6000000000000000000000000000000000000000000000000000000007bffffffffffffffffffffffffffffffffffffffffffffffffffffffff19166020820180517bffffffffffffffffffffffffffffffffffffffffffffffffffffffff838183161783525050505061308a565b5060008160000160006101000a81548160ff02191690831515021790555061264c612f7a565b73ffffffffffffffffffffffffffffffffffffffff168273ffffffffffffffffffffffffffffffffffffffff16146126b9576040517f08c379a00000000000000000000000000000000000000000000000000000000081526004016126b090613c6b565b60405180910390fd5b6126c285613178565b5b5050505050565b60004260fb5460fe60008673ffffffffffffffffffffffffffffffffffffffff1673ffffffffffffffffffffffffffffffffffffffff1681526020019081526020016000206000015461271d9190613ff8565b1061275d576040517f08c379a000000000000000000000000000000000000000000000000000000000815260040161275490613e8b565b60405180910390fd5b6040518060e00160405280428152602001838152602001600160038111156127885761278761422d565b5b8152602001600073ffffffffffffffffffffffffffffffffffffffff168152602001600073ffffffffffffffffffffffffffffffffffffffff168152602001600060038111156127db576127da61422d565b5b8152602001600060038111156127f4576127f361422d565b5b81525060ff600082015181600001556020820151816001015560408201518160020160006101000a81548160ff021916908360038111156128385761283761422d565b5b021790555060608201518160020160016101000a81548173ffffffffffffffffffffffffffffffffffffffff021916908373ffffffffffffffffffffffffffffffffffffffff16021790555060808201518160030160006101000a81548173ffffffffffffffffffffffffffffffffffffffff021916908373ffffffffffffffffffffffffffffffffffffffff16021790555060a08201518160030160146101000a81548160ff021916908360038111156128f6576128f561422d565b5b021790555060c08201518160030160156101000a81548160ff021916908360038111156129265761292561422d565b5b021790555090505060ff60fe60008573ffffffffffffffffffffffffffffffffffffffff1673ffffffffffffffffffffffffffffffffffffffff16815260200190815260200160002060008201548160000155600182015481600101556002820160009054906101000a900460ff168160020160006101000a81548160ff021916908360038111156129bb576129ba61422d565b5b02179055506002820160019054906101000a900473ffffffffffffffffffffffffffffffffffffffff168160020160016101000a81548173ffffffffffffffffffffffffffffffffffffffff021916908373ffffffffffffffffffffffffffffffffffffffff1602179055506003820160009054906101000a900473ffffffffffffffffffffffffffffffffffffffff168160030160006101000a81548173ffffffffffffffffffffffffffffffffffffffff021916908373ffffffffffffffffffffffffffffffffffffffff1602179055506003820160149054906101000a900460ff168160030160146101000a81548160ff02191690836003811115612ac657612ac561422d565b5b02179055506003820160159054906101000a900460ff168160030160156101000a81548160ff02191690836003811115612b0357612b0261422d565b5b02179055509050506001905092915050565b6000606560009054906101000a900473ffffffffffffffffffffffffffffffffffffffff16905081606560006101000a81548173ffffffffffffffffffffffffffffffffffffffff021916908373ffffffffffffffffffffffffffffffffffffffff1602179055508173ffffffffffffffffffffffffffffffffffffffff168173ffffffffffffffffffffffffffffffffffffffff167f8be0079c531659141344cd1fd0a4f28419497f9722a3daafe3b4186f6b6457e060405160405180910390a35050565b600060019054906101000a900460ff1680612c01575060008054906101000a900460ff16155b612c40576040517f08c379a0000000000000000000000000000000000000000000000000000000008152600401612c3790613d6b565b60405180910390fd5b60008060019054906101000a900460ff161590508015612c90576001600060016101000a81548160ff02191690831515021790555060016000806101000a81548160ff0219169083151502179055505b612c986131c7565b612ca06132a0565b8015612cc15760008060016101000a81548160ff0219169083151502179055505b50565b600060019054906101000a900460ff1680612cea575060008054906101000a900460ff16155b612d29576040517f08c379a0000000000000000000000000000000000000000000000000000000008152600401612d2090613d6b565b60405180910390fd5b60008060019054906101000a900460ff161590508015612d79576001600060016101000a81548160ff02191690831515021790555060016000806101000a81548160ff0219169083151502179055505b612d81613389565b612d89613462565b8015612daa5760008060016101000a81548160ff0219169083151502179055505b50565b6000816003811115612dc257612dc161422d565b5b836003811115612dd557612dd461422d565b5b1415612de45760009050612f15565b60016003811115612df857612df761422d565b5b836003811115612e0b57612e0a61422d565b5b148015612e3b5750600380811115612e2657612e2561422d565b5b826003811115612e3957612e3861422d565b5b145b15612e4857849050612f15565b60026003811115612e5c57612e5b61422d565b5b836003811115612e6f57612e6e61422d565b5b148015612ea0575060016003811115612e8b57612e8a61422d565b5b826003811115612e9e57612e9d61422d565b5b145b15612ead57849050612f15565b600380811115612ec057612ebf61422d565b5b836003811115612ed357612ed261422d565b5b148015612f04575060026003811115612eef57612eee61422d565b5b826003811115612f0257612f0161422d565b5b145b15612f1157849050612f15565b8390505b949350505050565b60008273ffffffffffffffffffffffffffffffffffffffff166108fc839081150290604051600060405180830381858888f19350505050158015612f65573d6000803e3d6000fd5b506001905092915050565b505050565b505050565b6000612fa87f360894a13ba1a3210667c828492db98dca3e2076cc3735a920a3ca505d382bbc60001b61353b565b60000160009054906101000a900473ffffffffffffffffffffffffffffffffffffffff16905090565b612fda81613545565b613019576040517f08c379a000000000000000000000000000000000000000000000000000000000815260040161301090613d8b565b60405180910390fd5b806130467f360894a13ba1a3210667c828492db98dca3e2076cc3735a920a3ca505d382bbc60001b61353b565b60000160006101000a81548173ffffffffffffffffffffffffffffffffffffffff021916908373ffffffffffffffffffffffffffffffffffffffff16021790555050565b606061309583613545565b6130d4576040517f08c379a00000000000000000000000000000000000000000000000000000000081526004016130cb90613e2b565b60405180910390fd5b6000808473ffffffffffffffffffffffffffffffffffffffff16846040516130fc9190613bbc565b600060405180830381855af49150503d8060008114613137576040519150601f19603f3d011682016040523d82523d6000602084013e61313c565b606091505b5091509150613164828260405180606001604052806027815260200161492960279139613558565b9250505092915050565b6000819050919050565b61318181612fd1565b8073ffffffffffffffffffffffffffffffffffffffff167fbc7cd75a20ee27fd9adebab32041f755214dbc6bffa90cc0225b39da2e5c2d3b60405160405180910390a250565b600060019054906101000a900460ff16806131ed575060008054906101000a900460ff16155b61322c576040517f08c379a000000000000000000000000000000000000000000000000000000000815260040161322390613d6b565b60405180910390fd5b60008060019054906101000a900460ff16159050801561327c576001600060016101000a81548160ff02191690831515021790555060016000806101000a81548160ff0219169083151502179055505b801561329d5760008060016101000a81548160ff0219169083151502179055505b50565b600060019054906101000a900460ff16806132c6575060008054906101000a900460ff16155b613305576040517f08c379a00000000000000000000000000000000000000000000000000000000081526004016132fc90613d6b565b60405180910390fd5b60008060019054906101000a900460ff161590508015613355576001600060016101000a81548160ff02191690831515021790555060016000806101000a81548160ff0219169083151502179055505b613365613360611a3a565b612b15565b80156133865760008060016101000a81548160ff0219169083151502179055505b50565b600060019054906101000a900460ff16806133af575060008054906101000a900460ff16155b6133ee576040517f08c379a00000000000000000000000000000000000000000000000000000000081526004016133e590613d6b565b60405180910390fd5b60008060019054906101000a900460ff16159050801561343e576001600060016101000a81548160ff02191690831515021790555060016000806101000a81548160ff0219169083151502179055505b801561345f5760008060016101000a81548160ff0219169083151502179055505b50565b600060019054906101000a900460ff1680613488575060008054906101000a900460ff16155b6134c7576040517f08c379a00000000000000000000000000000000000000000000000000000000081526004016134be90613d6b565b60405180910390fd5b60008060019054906101000a900460ff161590508015613517576001600060016101000a81548160ff02191690831515021790555060016000806101000a81548160ff0219169083151502179055505b80156135385760008060016101000a81548160ff0219169083151502179055505b50565b6000819050919050565b600080823b905060008111915050919050565b60608315613568578290506135b8565b60008351111561357b5782518084602001fd5b816040517f08c379a00000000000000000000000000000000000000000000000000000000081526004016135af9190613c09565b60405180910390fd5b9392505050565b60006135d26135cd84613f95565b613f70565b9050828152602081018484840111156135ee576135ed6142bf565b5b6135f9848285614159565b509392505050565b600081359050613610816148ea565b92915050565b600082601f83011261362b5761362a6142ba565b5b813561363b8482602086016135bf565b91505092915050565b60008135905061365381614901565b92915050565b60008135905061366881614911565b92915050565b600060208284031215613684576136836142c9565b5b600061369284828501613601565b91505092915050565b600080604083850312156136b2576136b16142c9565b5b60006136c085828601613601565b92505060206136d185828601613601565b9150509250929050565b6000806000606084860312156136f4576136f36142c9565b5b600061370286828701613601565b935050602061371386828701613601565b925050604061372486828701613659565b9150509250925092565b60008060408385031215613745576137446142c9565b5b600061375385828601613601565b925050602083013567ffffffffffffffff811115613774576137736142c4565b5b61378085828601613616565b9150509250929050565b600080604083850312156137a1576137a06142c9565b5b60006137af85828601613601565b92505060206137c085828601613644565b9150509250929050565b600080604083850312156137e1576137e06142c9565b5b60006137ef85828601613601565b925050602061380085828601613659565b9150509250929050565b613813816140ba565b82525050565b613822816140a8565b82525050565b613831816140cc565b82525050565b600061384282613fc6565b61384c8185613fdc565b935061385c818560208601614168565b80840191505092915050565b61387181614135565b82525050565b61388081614147565b82525050565b600061389182613fd1565b61389b8185613fe7565b93506138ab818560208601614168565b6138b4816142ce565b840191505092915050565b60006138cc602383613fe7565b91506138d7826142df565b604082019050919050565b60006138ef601d83613fe7565b91506138fa8261432e565b602082019050919050565b6000613912602f83613fe7565b915061391d82614357565b604082019050919050565b6000613935602683613fe7565b9150613940826143a6565b604082019050919050565b6000613958602283613fe7565b9150613963826143f5565b604082019050919050565b600061397b602483613fe7565b915061398682614444565b604082019050919050565b600061399e602683613fe7565b91506139a982614493565b604082019050919050565b60006139c1601e83613fe7565b91506139cc826144e2565b602082019050919050565b60006139e4603083613fe7565b91506139ef8261450b565b604082019050919050565b6000613a07601883613fe7565b9150613a128261455a565b602082019050919050565b6000613a2a602e83613fe7565b9150613a3582614583565b604082019050919050565b6000613a4d602d83613fe7565b9150613a58826145d2565b604082019050919050565b6000613a70602883613fe7565b9150613a7b82614621565b604082019050919050565b6000613a93602083613fe7565b9150613a9e82614670565b602082019050919050565b6000613ab6602c83613fe7565b9150613ac182614699565b604082019050919050565b6000613ad9602283613fe7565b9150613ae4826146e8565b604082019050919050565b6000613afc602683613fe7565b9150613b0782614737565b604082019050919050565b6000613b1f602583613fe7565b9150613b2a82614786565b604082019050919050565b6000613b42602483613fe7565b9150613b4d826147d5565b604082019050919050565b6000613b65602383613fe7565b9150613b7082614824565b604082019050919050565b6000613b88602583613fe7565b9150613b9382614873565b604082019050919050565b613ba78161411e565b82525050565b613bb681614128565b82525050565b6000613bc88284613837565b915081905092915050565b6000602082019050613be86000830184613819565b92915050565b6000602082019050613c036000830184613828565b92915050565b60006020820190508181036000830152613c238184613886565b905092915050565b60006020820190508181036000830152613c44816138bf565b9050919050565b60006020820190508181036000830152613c64816138e2565b9050919050565b60006020820190508181036000830152613c8481613905565b9050919050565b60006020820190508181036000830152613ca481613928565b9050919050565b60006020820190508181036000830152613cc48161394b565b9050919050565b60006020820190508181036000830152613ce48161396e565b9050919050565b60006020820190508181036000830152613d0481613991565b9050919050565b60006020820190508181036000830152613d24816139b4565b9050919050565b60006020820190508181036000830152613d44816139d7565b9050919050565b60006020820190508181036000830152613d64816139fa565b9050919050565b60006020820190508181036000830152613d8481613a1d565b9050919050565b60006020820190508181036000830152613da481613a40565b9050919050565b60006020820190508181036000830152613dc481613a63565b9050919050565b60006020820190508181036000830152613de481613a86565b9050919050565b60006020820190508181036000830152613e0481613aa9565b9050919050565b60006020820190508181036000830152613e2481613acc565b9050919050565b60006020820190508181036000830152613e4481613aef565b9050919050565b60006020820190508181036000830152613e6481613b12565b9050919050565b60006020820190508181036000830152613e8481613b35565b9050919050565b60006020820190508181036000830152613ea481613b58565b9050919050565b60006020820190508181036000830152613ec481613b7b565b9050919050565b6000602082019050613ee06000830184613b9e565b92915050565b600060e082019050613efb600083018a613b9e565b613f086020830189613b9e565b613f156040830188613868565b613f22606083018761380a565b613f2f6080830186613819565b613f3c60a0830185613877565b613f4960c0830184613877565b98975050505050505050565b6000602082019050613f6a6000830184613bad565b92915050565b6000613f7a613f8b565b9050613f8682826141cd565b919050565b6000604051905090565b600067ffffffffffffffff821115613fb057613faf61428b565b5b613fb9826142ce565b9050602081019050919050565b600081519050919050565b600081519050919050565b600081905092915050565b600082825260208201905092915050565b60006140038261411e565b915061400e8361411e565b9250827fffffffffffffffffffffffffffffffffffffffffffffffffffffffffffffffff03821115614043576140426141fe565b5b828201905092915050565b60006140598261411e565b91506140648361411e565b9250817fffffffffffffffffffffffffffffffffffffffffffffffffffffffffffffffff048311821515161561409d5761409c6141fe565b5b828202905092915050565b60006140b3826140fe565b9050919050565b60006140c5826140fe565b9050919050565b60008115159050919050565b60008190506140e6826148c2565b919050565b60008190506140f9826148d6565b919050565b600073ffffffffffffffffffffffffffffffffffffffff82169050919050565b6000819050919050565b600060ff82169050919050565b6000614140826140d8565b9050919050565b6000614152826140eb565b9050919050565b82818337600083830152505050565b60005b8381101561418657808201518184015260208101905061416b565b83811115614195576000848401525b50505050565b600060028204905060018216806141b357607f821691505b602082108114156141c7576141c661425c565b5b50919050565b6141d6826142ce565b810181811067ffffffffffffffff821117156141f5576141f461428b565b5b80604052505050565b7f4e487b7100000000000000000000000000000000000000000000000000000000600052601160045260246000fd5b7f4e487b7100000000000000000000000000000000000000000000000000000000600052602160045260246000fd5b7f4e487b7100000000000000000000000000000000000000000000000000000000600052602260045260246000fd5b7f4e487b7100000000000000000000000000000000000000000000000000000000600052604160045260246000fd5b600080fd5b600080fd5b600080fd5b600080fd5b6000601f19601f8301169050919050565b7f45524332303a207472616e7366657220746f20746865207a65726f206164647260008201527f6573730000000000000000000000000000000000000000000000000000000000602082015250565b7f596f7520617265206e6f7420706c6179696e6720746869732067616d65000000600082015250565b7f45524331393637557067726164653a207570677261646520627265616b73206660008201527f7572746865722075706772616465730000000000000000000000000000000000602082015250565b7f4f776e61626c653a206e6577206f776e657220697320746865207a65726f206160008201527f6464726573730000000000000000000000000000000000000000000000000000602082015250565b7f45524332303a20617070726f766520746f20746865207a65726f20616464726560008201527f7373000000000000000000000000000000000000000000000000000000000000602082015250565b7f596f7520617265206e6f7420616c6c6f77656420746f206a6f696e207468652060008201527f67616d6500000000000000000000000000000000000000000000000000000000602082015250565b7f45524332303a207472616e7366657220616d6f756e742065786365656473206260008201527f616c616e63650000000000000000000000000000000000000000000000000000602082015250565b7f596f7520646f206e6f74206861766520612067616d6520737461727465640000600082015250565b7f596f75206861766520746f2073656e64206d6f726520746f6b656e732069662060008201527f796f752077616e7420746f20706c617900000000000000000000000000000000602082015250565b7f5468657265206973206e6f2067616d6520746f206a6f696e0000000000000000600082015250565b7f496e697469616c697a61626c653a20636f6e747261637420697320616c72656160008201527f647920696e697469616c697a6564000000000000000000000000000000000000602082015250565b7f455243313936373a206e657720696d706c656d656e746174696f6e206973206e60008201527f6f74206120636f6e747261637400000000000000000000000000000000000000602082015250565b7f45524332303a207472616e7366657220616d6f756e742065786365656473206160008201527f6c6c6f77616e6365000000000000000000000000000000000000000000000000602082015250565b7f4f776e61626c653a2063616c6c6572206973206e6f7420746865206f776e6572600082015250565b7f596f752063616e206e6f74206a6f696e20612067616d6520696620796f75206160008201527f726520746865206f776e65720000000000000000000000000000000000000000602082015250565b7f596f7520646f206e6f74206861766520616e79206c617374206d6f766520646f60008201527f6e65000000000000000000000000000000000000000000000000000000000000602082015250565b7f416464726573733a2064656c65676174652063616c6c20746f206e6f6e2d636f60008201527f6e74726163740000000000000000000000000000000000000000000000000000602082015250565b7f45524332303a207472616e736665722066726f6d20746865207a65726f20616460008201527f6472657373000000000000000000000000000000000000000000000000000000602082015250565b7f45524332303a20617070726f76652066726f6d20746865207a65726f2061646460008201527f7265737300000000000000000000000000000000000000000000000000000000602082015250565b7f596f75206861766520616c726561647920612067616d6520696e697469616c6960008201527f7a65640000000000000000000000000000000000000000000000000000000000602082015250565b7f45524332303a2064656372656173656420616c6c6f77616e63652062656c6f7760008201527f207a65726f000000000000000000000000000000000000000000000000000000602082015250565b600481106148d3576148d261422d565b5b50565b600481106148e7576148e661422d565b5b50565b6148f3816140a8565b81146148fe57600080fd5b50565b6004811061490e57600080fd5b50565b61491a8161411e565b811461492557600080fd5b5056fe416464726573733a206c6f772d6c6576656c2064656c65676174652063616c6c206661696c6564a26469706673582212203bbffd1d7a930fc661690be5d0fa00168193f77506f31cbde5b0ef889be8acd564736f6c63430008070033",
  "immutableReferences": {},
  "source": "pragma solidity ^0.8.2;\r\nimport \"@openzeppelin/contracts-upgradeable/token/ERC20/ERC20Upgradeable.sol\";\r\nimport \"@openzeppelin/contracts-upgradeable/proxy/utils/Initializable.sol\";\r\nimport \"@openzeppelin/contracts-upgradeable/access/OwnableUpgradeable.sol\";\r\nimport \"@openzeppelin/contracts-upgradeable/proxy/utils/UUPSUpgradeable.sol\";\r\nimport './RockPaperScissors.sol';\r\n/*\r\n                        ROCK PAPER AND SCRISSORS GAME\r\n\r\n*/\r\n\r\ncontract RockPaperScissorsv2 is  Initializable, ERC20Upgradeable,OwnableUpgradeable, UUPSUpgradeable{\r\n    uint waitingTime;\r\n    enum GameState{ NONE,CREATED, STARTED, FINISHED }\r\n    enum Move{ NONE,ROCK, PAPER, SCISORS }\r\n     struct Game {\r\n        uint256 timeStamp;\r\n        uint256 tokenAmount;\r\n        GameState state;\r\n        //Addresses\r\n        address payable winner;\r\n        address opponent;\r\n        //Moves\r\n        Move heroMove;\r\n        Move opponentMove;\r\n        }\r\n    Game[] gameHistory;\r\n    //Mapping for recreate old move\r\n    mapping(address => Move) lastMove;\r\n    mapping(address => Game) public gameList;\r\n    Game g;\r\n    function initialize() initializer public {\r\n        waitingTime=60;\r\n        __Ownable_init();\r\n        __UUPSUpgradeable_init();\r\n    }\r\n    /* Creates a new game\r\n       while freezing _tokenAmount\r\n       and add it to the game list\r\n    */\r\n    function newGame() public payable returns(bool){\r\n       privateNewGame(msg.sender,msg.value);\r\n       return true;\r\n    }\r\n\r\n    function joinGame(address _gameOwner) public payable returns(bool){\r\n       privateJoinGame(_gameOwner,msg.sender,msg.value);\r\n       return true;\r\n    }\r\n\r\n    function newFeature(address _gameOwner) public payable returns(bool){\r\n       privateJoinGame(_gameOwner,msg.sender,msg.value);\r\n       return true;\r\n    }\r\n    function privateNewGame(address _gameOwner,uint256 _tokenAmount) private returns(bool){\r\n        require(\r\n        (gameList[_gameOwner].timeStamp+waitingTime<block.timestamp),\"You have already a game initialized\");\r\n        g=Game(block.timestamp,_tokenAmount,GameState.CREATED,payable(0x0),address(0x0),Move.NONE,Move.NONE);\r\n        gameList[_gameOwner]=g;\r\n\r\n        return true;\r\n    }\r\n    function privateJoinGame(address _gameOwner, address _opponent,uint256 _tokenAmount) private returns(bool){\r\n        require(g.state==GameState.CREATED,\"There is no game to join\");\r\n        require(\r\n        (_tokenAmount>=gameList[_gameOwner].tokenAmount),\"You have to send more tokens if you want to play\");\r\n        require(\r\n        (_gameOwner!=_opponent),\"You can not join a game if you are the owner\");\r\n        require(\r\n        (gameList[_gameOwner].opponent==address(0x0)||gameList[_gameOwner].opponent==_opponent),\"You are not allowed to join the game\");\r\n        gameList[_gameOwner].state=GameState.STARTED;\r\n        gameList[_gameOwner].opponent=_opponent;\r\n        gameList[_opponent]=gameList[_gameOwner];\r\n        \r\n\r\n        return true;\r\n    }\r\n\r\n    function move(address _gameOwner,Move _move) public returns(bool){\r\n        require((gameList[_gameOwner].state==GameState.STARTED),\"You do not have a game started\");\r\n        require((gameList[_gameOwner].opponent==msg.sender||msg.sender==_gameOwner),\"You are not playing this game\");\r\n        if (_gameOwner==msg.sender) {\r\n            gameList[_gameOwner].heroMove=_move;\r\n        } else {\r\n            gameList[_gameOwner].opponentMove=_move;\r\n        }\r\n\r\n        Move hMove=gameList[_gameOwner].heroMove;\r\n        Move oMove=gameList[_gameOwner].opponentMove;\r\n        address oAddress=gameList[_gameOwner].opponent;\r\n        //If two moves are saved lets see the winner!\r\n        if (hMove!=Move.NONE&&\r\n            oMove!=Move.NONE) {\r\n            address payable r=payable(result(_gameOwner,oAddress,hMove,oMove));\r\n            gameList[_gameOwner].state=GameState.FINISHED;\r\n            if (r!=address(0x0)){\r\n                gameList[_gameOwner].winner=r;\r\n                releaseTokens(r,gameList[_gameOwner].tokenAmount*2);\r\n            }\r\n            else{\r\n                releaseTokens(payable(_gameOwner),gameList[_gameOwner].tokenAmount);\r\n                releaseTokens(payable(gameList[_gameOwner].opponent),gameList[_gameOwner].tokenAmount);\r\n            }\r\n            //Add game to game history\r\n            gameHistory.push(gameList[_gameOwner]);\r\n            delete gameList[_gameOwner];\r\n        }\r\n        lastMove[msg.sender]=_move;\r\n        return true;\r\n    }\r\n\r\n     /* ReleaseTokens*/\r\n    function releaseTokens(address payable winner,uint256 _tokenAmount) private returns(bool){\r\n        winner.transfer(_tokenAmount);\r\n        return true;\r\n    }\r\n\r\n    //Decides who wins\r\n    function result(address p1,address p2,Move m1,Move m2) private pure returns(address){\r\n        if(m1==m2){\r\n            return address(0x0);\r\n        }\r\n        else if(m1==Move.ROCK&&\r\n            m2==Move.SCISORS){\r\n            return p1;\r\n        }\r\n        else if(m1==Move.PAPER&&\r\n            m2==Move.ROCK){\r\n            return p1;\r\n        }\r\n        else if(m1==Move.SCISORS&&\r\n            m2==Move.PAPER){\r\n            return p1;\r\n        }\r\n        else{\r\n            return p2;\r\n        }\r\n        \r\n    }\r\n\r\n    //Extras\r\n    function playEachOther(address _gameOwner,address _opponent) public payable returns (bool){\r\n        privateNewGame(_gameOwner,msg.value);\r\n        gameList[_gameOwner].opponent=_opponent;\r\n        return true;\r\n    }\r\n\r\n    function betLastMove(address _gameOwner) public returns (bool){\r\n        require(lastMove[msg.sender]!=Move.NONE,\"You do not have any last move done\");\r\n        move(_gameOwner,lastMove[msg.sender]);\r\n        return true;\r\n    }\r\n\r\n    //Proxy\r\n    function _authorizeUpgrade(address newImplementation)\r\n        internal\r\n        onlyOwner\r\n        override\r\n    {}\r\n}",
  "sourcePath": "C:\\Users\\titiloxx\\Documents\\GitHub\\RockPaperScissors-test-project\\contracts\\RockPaperScissorsV2.sol",
  "compiler": {
    "name": "solc",
    "version": "0.8.7+commit.e28d00a7.Emscripten.clang"
  },
  "schemaVersion": "3.4.2",
  "updatedAt": "2021-08-22T21:07:47.489Z",
  "networkType": "ethereum",
  "devdoc": {
    "kind": "dev",
    "methods": {
      "allowance(address,address)": {
        "details": "See {IERC20-allowance}."
      },
      "approve(address,uint256)": {
        "details": "See {IERC20-approve}. Requirements: - `spender` cannot be the zero address."
      },
      "balanceOf(address)": {
        "details": "See {IERC20-balanceOf}."
      },
      "decimals()": {
        "details": "Returns the number of decimals used to get its user representation. For example, if `decimals` equals `2`, a balance of `505` tokens should be displayed to a user as `5.05` (`505 / 10 ** 2`). Tokens usually opt for a value of 18, imitating the relationship between Ether and Wei. This is the value {ERC20} uses, unless this function is overridden; NOTE: This information is only used for _display_ purposes: it in no way affects any of the arithmetic of the contract, including {IERC20-balanceOf} and {IERC20-transfer}."
      },
      "decreaseAllowance(address,uint256)": {
        "details": "Atomically decreases the allowance granted to `spender` by the caller. This is an alternative to {approve} that can be used as a mitigation for problems described in {IERC20-approve}. Emits an {Approval} event indicating the updated allowance. Requirements: - `spender` cannot be the zero address. - `spender` must have allowance for the caller of at least `subtractedValue`."
      },
      "increaseAllowance(address,uint256)": {
        "details": "Atomically increases the allowance granted to `spender` by the caller. This is an alternative to {approve} that can be used as a mitigation for problems described in {IERC20-approve}. Emits an {Approval} event indicating the updated allowance. Requirements: - `spender` cannot be the zero address."
      },
      "name()": {
        "details": "Returns the name of the token."
      },
      "owner()": {
        "details": "Returns the address of the current owner."
      },
      "renounceOwnership()": {
        "details": "Leaves the contract without owner. It will not be possible to call `onlyOwner` functions anymore. Can only be called by the current owner. NOTE: Renouncing ownership will leave the contract without an owner, thereby removing any functionality that is only available to the owner."
      },
      "symbol()": {
        "details": "Returns the symbol of the token, usually a shorter version of the name."
      },
      "totalSupply()": {
        "details": "See {IERC20-totalSupply}."
      },
      "transfer(address,uint256)": {
        "details": "See {IERC20-transfer}. Requirements: - `recipient` cannot be the zero address. - the caller must have a balance of at least `amount`."
      },
      "transferFrom(address,address,uint256)": {
        "details": "See {IERC20-transferFrom}. Emits an {Approval} event indicating the updated allowance. This is not required by the EIP. See the note at the beginning of {ERC20}. Requirements: - `sender` and `recipient` cannot be the zero address. - `sender` must have a balance of at least `amount`. - the caller must have allowance for ``sender``'s tokens of at least `amount`."
      },
      "transferOwnership(address)": {
        "details": "Transfers ownership of the contract to a new account (`newOwner`). Can only be called by the current owner."
      },
      "upgradeTo(address)": {
        "details": "Upgrade the implementation of the proxy to `newImplementation`. Calls {_authorizeUpgrade}. Emits an {Upgraded} event."
      },
      "upgradeToAndCall(address,bytes)": {
        "details": "Upgrade the implementation of the proxy to `newImplementation`, and subsequently execute the function call encoded in `data`. Calls {_authorizeUpgrade}. Emits an {Upgraded} event."
      }
    },
    "version": 1
  },
  "userdoc": {
    "kind": "user",
    "methods": {},
    "version": 1
  }
}