{
  "contractName": "RockPaperScissors",
  "abi": [
    {
      "inputs": [
        {
          "internalType": "address",
          "name": "",
          "type": "address"
        }
      ],
      "name": "gameList",
      "outputs": [
        {
          "internalType": "uint256",
          "name": "timeStamp",
          "type": "uint256"
        },
        {
          "internalType": "uint256",
          "name": "tokenAmount",
          "type": "uint256"
        },
        {
          "internalType": "enum RockPaperScissors.GameState",
          "name": "state",
          "type": "uint8"
        },
        {
          "internalType": "address payable",
          "name": "winner",
          "type": "address"
        },
        {
          "internalType": "address",
          "name": "opponent",
          "type": "address"
        },
        {
          "internalType": "enum RockPaperScissors.Move",
          "name": "heroMove",
          "type": "uint8"
        },
        {
          "internalType": "enum RockPaperScissors.Move",
          "name": "opponentMove",
          "type": "uint8"
        }
      ],
      "stateMutability": "view",
      "type": "function",
      "constant": true
    },
    {
      "inputs": [],
      "name": "newGame",
      "outputs": [
        {
          "internalType": "bool",
          "name": "",
          "type": "bool"
        }
      ],
      "stateMutability": "payable",
      "type": "function",
      "payable": true
    },
    {
      "inputs": [
        {
          "internalType": "address",
          "name": "_gameOwner",
          "type": "address"
        }
      ],
      "name": "joinGame",
      "outputs": [
        {
          "internalType": "bool",
          "name": "",
          "type": "bool"
        }
      ],
      "stateMutability": "payable",
      "type": "function",
      "payable": true
    },
    {
      "inputs": [
        {
          "internalType": "address",
          "name": "_gameOwner",
          "type": "address"
        },
        {
          "internalType": "uint256",
          "name": "_tokenAmount",
          "type": "uint256"
        }
      ],
      "name": "privateNewGame",
      "outputs": [
        {
          "internalType": "bool",
          "name": "",
          "type": "bool"
        }
      ],
      "stateMutability": "payable",
      "type": "function",
      "payable": true
    },
    {
      "inputs": [
        {
          "internalType": "address",
          "name": "_gameOwner",
          "type": "address"
        },
        {
          "internalType": "enum RockPaperScissors.Move",
          "name": "_move",
          "type": "uint8"
        }
      ],
      "name": "move",
      "outputs": [
        {
          "internalType": "bool",
          "name": "",
          "type": "bool"
        }
      ],
      "stateMutability": "nonpayable",
      "type": "function"
    },
    {
      "inputs": [
        {
          "internalType": "address",
          "name": "_gameOwner",
          "type": "address"
        },
        {
          "internalType": "address",
          "name": "_opponent",
          "type": "address"
        }
      ],
      "name": "playEachOther",
      "outputs": [
        {
          "internalType": "bool",
          "name": "",
          "type": "bool"
        }
      ],
      "stateMutability": "payable",
      "type": "function",
      "payable": true
    },
    {
      "inputs": [
        {
          "internalType": "address",
          "name": "_gameOwner",
          "type": "address"
        }
      ],
      "name": "betLastMove",
      "outputs": [
        {
          "internalType": "bool",
          "name": "",
          "type": "bool"
        }
      ],
      "stateMutability": "nonpayable",
      "type": "function"
    }
  ],
  "bytecode": "0x6080604052603c60005534801561001557600080fd5b50612817806100256000396000f3fe6080604052600436106100705760003560e01c80637d03f5f31161004e5780637d03f5f314610112578063b7f7388614610130578063de1d66d914610160578063ea01a648146101a357610070565b80632389a290146100755780632a440013146100a557806364ec29bb146100e2575b600080fd5b61008f600480360381019061008a9190612039565b6101e0565b60405161009c919061242e565b60405180910390f35b3480156100b157600080fd5b506100cc60048036038101906100c79190612039565b6101f7565b6040516100d9919061242e565b60405180910390f35b6100fc60048036038101906100f79190612062565b610358565b604051610109919061242e565b60405180910390f35b61011a6103f0565b604051610127919061242e565b60405180910390f35b61014a600480360381019061014591906120da565b610404565b604051610157919061242e565b60405180910390f35b34801561016c57600080fd5b5061018760048036038101906101829190612039565b6109a5565b60405161019a9796959493929190612549565b60405180910390f35b3480156101af57600080fd5b506101ca60048036038101906101c5919061209e565b610a4e565b6040516101d7919061242e565b60405180910390f35b60006101ed823334611556565b5060019050919050565b6000806003811115610232577f4e487b7100000000000000000000000000000000000000000000000000000000600052602160045260246000fd5b600260003373ffffffffffffffffffffffffffffffffffffffff1673ffffffffffffffffffffffffffffffffffffffff16815260200190815260200160002060009054906101000a900460ff1660038111156102b7577f4e487b7100000000000000000000000000000000000000000000000000000000600052602160045260246000fd5b14156102f8576040517f08c379a00000000000000000000000000000000000000000000000000000000081526004016102ef90612509565b60405180910390fd5b61034e82600260003373ffffffffffffffffffffffffffffffffffffffff1673ffffffffffffffffffffffffffffffffffffffff16815260200190815260200160002060009054906101000a900460ff16610a4e565b5060019050919050565b60006103648334610404565b5081600360008573ffffffffffffffffffffffffffffffffffffffff1673ffffffffffffffffffffffffffffffffffffffff16815260200190815260200160002060030160006101000a81548173ffffffffffffffffffffffffffffffffffffffff021916908373ffffffffffffffffffffffffffffffffffffffff1602179055506001905092915050565b60006103fc3334610404565b506001905090565b600042600054600360008673ffffffffffffffffffffffffffffffffffffffff1673ffffffffffffffffffffffffffffffffffffffff1681526020019081526020016000206000015461045791906125c9565b10610497576040517f08c379a000000000000000000000000000000000000000000000000000000000815260040161048e90612529565b60405180910390fd5b6040518060e00160405280428152602001838152602001600160038111156104e8577f4e487b7100000000000000000000000000000000000000000000000000000000600052602160045260246000fd5b8152602001600073ffffffffffffffffffffffffffffffffffffffff168152602001600073ffffffffffffffffffffffffffffffffffffffff16815260200160006003811115610561577f4e487b7100000000000000000000000000000000000000000000000000000000600052602160045260246000fd5b8152602001600060038111156105a0577f4e487b7100000000000000000000000000000000000000000000000000000000600052602160045260246000fd5b8152506004600082015181600001556020820151816001015560408201518160020160006101000a81548160ff0219169083600381111561060a577f4e487b7100000000000000000000000000000000000000000000000000000000600052602160045260246000fd5b021790555060608201518160020160016101000a81548173ffffffffffffffffffffffffffffffffffffffff021916908373ffffffffffffffffffffffffffffffffffffffff16021790555060808201518160030160006101000a81548173ffffffffffffffffffffffffffffffffffffffff021916908373ffffffffffffffffffffffffffffffffffffffff16021790555060a08201518160030160146101000a81548160ff021916908360038111156106ee577f4e487b7100000000000000000000000000000000000000000000000000000000600052602160045260246000fd5b021790555060c08201518160030160156101000a81548160ff02191690836003811115610744577f4e487b7100000000000000000000000000000000000000000000000000000000600052602160045260246000fd5b02179055509050506004600360008573ffffffffffffffffffffffffffffffffffffffff1673ffffffffffffffffffffffffffffffffffffffff16815260200190815260200160002060008201548160000155600182015481600101556002820160009054906101000a900460ff168160020160006101000a81548160ff021916908360038111156107ff577f4e487b7100000000000000000000000000000000000000000000000000000000600052602160045260246000fd5b02179055506002820160019054906101000a900473ffffffffffffffffffffffffffffffffffffffff168160020160016101000a81548173ffffffffffffffffffffffffffffffffffffffff021916908373ffffffffffffffffffffffffffffffffffffffff1602179055506003820160009054906101000a900473ffffffffffffffffffffffffffffffffffffffff168160030160006101000a81548173ffffffffffffffffffffffffffffffffffffffff021916908373ffffffffffffffffffffffffffffffffffffffff1602179055506003820160149054906101000a900460ff168160030160146101000a81548160ff02191690836003811115610930577f4e487b7100000000000000000000000000000000000000000000000000000000600052602160045260246000fd5b02179055506003820160159054906101000a900460ff168160030160156101000a81548160ff02191690836003811115610993577f4e487b7100000000000000000000000000000000000000000000000000000000600052602160045260246000fd5b02179055509050506001905092915050565b60036020528060005260406000206000915090508060000154908060010154908060020160009054906101000a900460ff16908060020160019054906101000a900473ffffffffffffffffffffffffffffffffffffffff16908060030160009054906101000a900473ffffffffffffffffffffffffffffffffffffffff16908060030160149054906101000a900460ff16908060030160159054906101000a900460ff16905087565b600060026003811115610a8a577f4e487b7100000000000000000000000000000000000000000000000000000000600052602160045260246000fd5b600360008573ffffffffffffffffffffffffffffffffffffffff1673ffffffffffffffffffffffffffffffffffffffff16815260200190815260200160002060020160009054906101000a900460ff166003811115610b12577f4e487b7100000000000000000000000000000000000000000000000000000000600052602160045260246000fd5b14610b52576040517f08c379a0000000000000000000000000000000000000000000000000000000008152600401610b4990612489565b60405180910390fd5b3373ffffffffffffffffffffffffffffffffffffffff16600360008573ffffffffffffffffffffffffffffffffffffffff1673ffffffffffffffffffffffffffffffffffffffff16815260200190815260200160002060030160009054906101000a900473ffffffffffffffffffffffffffffffffffffffff1673ffffffffffffffffffffffffffffffffffffffff161480610c1957508273ffffffffffffffffffffffffffffffffffffffff163373ffffffffffffffffffffffffffffffffffffffff16145b610c58576040517f08c379a0000000000000000000000000000000000000000000000000000000008152600401610c4f90612449565b60405180910390fd5b3373ffffffffffffffffffffffffffffffffffffffff168373ffffffffffffffffffffffffffffffffffffffff161415610d215781600360008573ffffffffffffffffffffffffffffffffffffffff1673ffffffffffffffffffffffffffffffffffffffff16815260200190815260200160002060030160146101000a81548160ff02191690836003811115610d17577f4e487b7100000000000000000000000000000000000000000000000000000000600052602160045260246000fd5b0217905550610db2565b81600360008573ffffffffffffffffffffffffffffffffffffffff1673ffffffffffffffffffffffffffffffffffffffff16815260200190815260200160002060030160156101000a81548160ff02191690836003811115610dac577f4e487b7100000000000000000000000000000000000000000000000000000000600052602160045260246000fd5b02179055505b6000600360008573ffffffffffffffffffffffffffffffffffffffff1673ffffffffffffffffffffffffffffffffffffffff16815260200190815260200160002060030160149054906101000a900460ff1690506000600360008673ffffffffffffffffffffffffffffffffffffffff1673ffffffffffffffffffffffffffffffffffffffff16815260200190815260200160002060030160159054906101000a900460ff1690506000600360008773ffffffffffffffffffffffffffffffffffffffff1673ffffffffffffffffffffffffffffffffffffffff16815260200190815260200160002060030160009054906101000a900473ffffffffffffffffffffffffffffffffffffffff16905060006003811115610efb577f4e487b7100000000000000000000000000000000000000000000000000000000600052602160045260246000fd5b836003811115610f34577f4e487b7100000000000000000000000000000000000000000000000000000000600052602160045260246000fd5b14158015610fb3575060006003811115610f77577f4e487b7100000000000000000000000000000000000000000000000000000000600052602160045260246000fd5b826003811115610fb0577f4e487b7100000000000000000000000000000000000000000000000000000000600052602160045260246000fd5b14155b156114bc576000610fc687838686611c23565b905060038060008973ffffffffffffffffffffffffffffffffffffffff1673ffffffffffffffffffffffffffffffffffffffff16815260200190815260200160002060020160006101000a81548160ff02191690836003811115611053577f4e487b7100000000000000000000000000000000000000000000000000000000600052602160045260246000fd5b0217905550600073ffffffffffffffffffffffffffffffffffffffff168173ffffffffffffffffffffffffffffffffffffffff16146111675780600360008973ffffffffffffffffffffffffffffffffffffffff1673ffffffffffffffffffffffffffffffffffffffff16815260200190815260200160002060020160016101000a81548173ffffffffffffffffffffffffffffffffffffffff021916908373ffffffffffffffffffffffffffffffffffffffff160217905550611165816002600360008b73ffffffffffffffffffffffffffffffffffffffff1673ffffffffffffffffffffffffffffffffffffffff16815260200190815260200160002060010154611160919061261f565b611fa7565b505b6001600360008973ffffffffffffffffffffffffffffffffffffffff1673ffffffffffffffffffffffffffffffffffffffff168152602001908152602001600020908060018154018082558091505060019003906000526020600020906004020160009091909190915060008201548160000155600182015481600101556002820160009054906101000a900460ff168160020160006101000a81548160ff02191690836003811115611243577f4e487b7100000000000000000000000000000000000000000000000000000000600052602160045260246000fd5b02179055506002820160019054906101000a900473ffffffffffffffffffffffffffffffffffffffff168160020160016101000a81548173ffffffffffffffffffffffffffffffffffffffff021916908373ffffffffffffffffffffffffffffffffffffffff1602179055506003820160009054906101000a900473ffffffffffffffffffffffffffffffffffffffff168160030160006101000a81548173ffffffffffffffffffffffffffffffffffffffff021916908373ffffffffffffffffffffffffffffffffffffffff1602179055506003820160149054906101000a900460ff168160030160146101000a81548160ff02191690836003811115611374577f4e487b7100000000000000000000000000000000000000000000000000000000600052602160045260246000fd5b02179055506003820160159054906101000a900460ff168160030160156101000a81548160ff021916908360038111156113d7577f4e487b7100000000000000000000000000000000000000000000000000000000600052602160045260246000fd5b02179055505050600360008873ffffffffffffffffffffffffffffffffffffffff1673ffffffffffffffffffffffffffffffffffffffff16815260200190815260200160002060008082016000905560018201600090556002820160006101000a81549060ff02191690556002820160016101000a81549073ffffffffffffffffffffffffffffffffffffffff02191690556003820160006101000a81549073ffffffffffffffffffffffffffffffffffffffff02191690556003820160146101000a81549060ff02191690556003820160156101000a81549060ff02191690555050505b84600260003373ffffffffffffffffffffffffffffffffffffffff1673ffffffffffffffffffffffffffffffffffffffff16815260200190815260200160002060006101000a81548160ff02191690836003811115611544577f4e487b7100000000000000000000000000000000000000000000000000000000600052602160045260246000fd5b02179055506001935050505092915050565b600060016003811115611592577f4e487b7100000000000000000000000000000000000000000000000000000000600052602160045260246000fd5b600460020160009054906101000a900460ff1660038111156115dd577f4e487b7100000000000000000000000000000000000000000000000000000000600052602160045260246000fd5b1461161d576040517f08c379a0000000000000000000000000000000000000000000000000000000008152600401611614906124c9565b60405180910390fd5b600360008573ffffffffffffffffffffffffffffffffffffffff1673ffffffffffffffffffffffffffffffffffffffff168152602001908152602001600020600101548210156116a2576040517f08c379a0000000000000000000000000000000000000000000000000000000008152600401611699906124a9565b60405180910390fd5b8273ffffffffffffffffffffffffffffffffffffffff168473ffffffffffffffffffffffffffffffffffffffff161415611711576040517f08c379a0000000000000000000000000000000000000000000000000000000008152600401611708906124e9565b60405180910390fd5b600073ffffffffffffffffffffffffffffffffffffffff16600360008673ffffffffffffffffffffffffffffffffffffffff1673ffffffffffffffffffffffffffffffffffffffff16815260200190815260200160002060030160009054906101000a900473ffffffffffffffffffffffffffffffffffffffff1673ffffffffffffffffffffffffffffffffffffffff16148061183b57508273ffffffffffffffffffffffffffffffffffffffff16600360008673ffffffffffffffffffffffffffffffffffffffff1673ffffffffffffffffffffffffffffffffffffffff16815260200190815260200160002060030160009054906101000a900473ffffffffffffffffffffffffffffffffffffffff1673ffffffffffffffffffffffffffffffffffffffff16145b61187a576040517f08c379a000000000000000000000000000000000000000000000000000000000815260040161187190612469565b60405180910390fd5b6002600360008673ffffffffffffffffffffffffffffffffffffffff1673ffffffffffffffffffffffffffffffffffffffff16815260200190815260200160002060020160006101000a81548160ff02191690836003811115611906577f4e487b7100000000000000000000000000000000000000000000000000000000600052602160045260246000fd5b021790555082600360008673ffffffffffffffffffffffffffffffffffffffff1673ffffffffffffffffffffffffffffffffffffffff16815260200190815260200160002060030160006101000a81548173ffffffffffffffffffffffffffffffffffffffff021916908373ffffffffffffffffffffffffffffffffffffffff160217905550600360008573ffffffffffffffffffffffffffffffffffffffff1673ffffffffffffffffffffffffffffffffffffffff168152602001908152602001600020600360008573ffffffffffffffffffffffffffffffffffffffff1673ffffffffffffffffffffffffffffffffffffffff16815260200190815260200160002060008201548160000155600182015481600101556002820160009054906101000a900460ff168160020160006101000a81548160ff02191690836003811115611a7c577f4e487b7100000000000000000000000000000000000000000000000000000000600052602160045260246000fd5b02179055506002820160019054906101000a900473ffffffffffffffffffffffffffffffffffffffff168160020160016101000a81548173ffffffffffffffffffffffffffffffffffffffff021916908373ffffffffffffffffffffffffffffffffffffffff1602179055506003820160009054906101000a900473ffffffffffffffffffffffffffffffffffffffff168160030160006101000a81548173ffffffffffffffffffffffffffffffffffffffff021916908373ffffffffffffffffffffffffffffffffffffffff1602179055506003820160149054906101000a900460ff168160030160146101000a81548160ff02191690836003811115611bad577f4e487b7100000000000000000000000000000000000000000000000000000000600052602160045260246000fd5b02179055506003820160159054906101000a900460ff168160030160156101000a81548160ff02191690836003811115611c10577f4e487b7100000000000000000000000000000000000000000000000000000000600052602160045260246000fd5b0217905550905050600190509392505050565b6000816003811115611c5e577f4e487b7100000000000000000000000000000000000000000000000000000000600052602160045260246000fd5b836003811115611c97577f4e487b7100000000000000000000000000000000000000000000000000000000600052602160045260246000fd5b1415611ca65760009050611f9f565b60016003811115611ce0577f4e487b7100000000000000000000000000000000000000000000000000000000600052602160045260246000fd5b836003811115611d19577f4e487b7100000000000000000000000000000000000000000000000000000000600052602160045260246000fd5b148015611d955750600380811115611d5a577f4e487b7100000000000000000000000000000000000000000000000000000000600052602160045260246000fd5b826003811115611d93577f4e487b7100000000000000000000000000000000000000000000000000000000600052602160045260246000fd5b145b15611da257849050611f9f565b60026003811115611ddc577f4e487b7100000000000000000000000000000000000000000000000000000000600052602160045260246000fd5b836003811115611e15577f4e487b7100000000000000000000000000000000000000000000000000000000600052602160045260246000fd5b148015611e92575060016003811115611e57577f4e487b7100000000000000000000000000000000000000000000000000000000600052602160045260246000fd5b826003811115611e90577f4e487b7100000000000000000000000000000000000000000000000000000000600052602160045260246000fd5b145b15611e9f57849050611f9f565b600380811115611ed8577f4e487b7100000000000000000000000000000000000000000000000000000000600052602160045260246000fd5b836003811115611f11577f4e487b7100000000000000000000000000000000000000000000000000000000600052602160045260246000fd5b148015611f8e575060026003811115611f53577f4e487b7100000000000000000000000000000000000000000000000000000000600052602160045260246000fd5b826003811115611f8c577f4e487b7100000000000000000000000000000000000000000000000000000000600052602160045260246000fd5b145b15611f9b57849050611f9f565b8390505b949350505050565b60008273ffffffffffffffffffffffffffffffffffffffff166108fc839081150290604051600060405180830381858888f19350505050158015611fef573d6000803e3d6000fd5b506001905092915050565b600081359050612009816127a3565b92915050565b60008135905061201e816127ba565b92915050565b600081359050612033816127ca565b92915050565b60006020828403121561204b57600080fd5b600061205984828501611ffa565b91505092915050565b6000806040838503121561207557600080fd5b600061208385828601611ffa565b925050602061209485828601611ffa565b9150509250929050565b600080604083850312156120b157600080fd5b60006120bf85828601611ffa565b92505060206120d08582860161200f565b9150509250929050565b600080604083850312156120ed57600080fd5b60006120fb85828601611ffa565b925050602061210c85828601612024565b9150509250929050565b61211f8161268b565b82525050565b61212e81612679565b82525050565b61213d8161269d565b82525050565b61214c816126f9565b82525050565b61215b8161270b565b82525050565b600061216e601d836125b8565b91507f596f7520617265206e6f7420706c6179696e6720746869732067616d650000006000830152602082019050919050565b60006121ae6024836125b8565b91507f596f7520617265206e6f7420616c6c6f77656420746f206a6f696e207468652060008301527f67616d65000000000000000000000000000000000000000000000000000000006020830152604082019050919050565b6000612214601e836125b8565b91507f596f7520646f206e6f74206861766520612067616d65207374617274656400006000830152602082019050919050565b60006122546030836125b8565b91507f596f75206861766520746f2073656e64206d6f726520746f6b656e732069662060008301527f796f752077616e7420746f20706c6179000000000000000000000000000000006020830152604082019050919050565b60006122ba6018836125b8565b91507f5468657265206973206e6f2067616d6520746f206a6f696e00000000000000006000830152602082019050919050565b60006122fa602c836125b8565b91507f596f752063616e206e6f74206a6f696e20612067616d6520696620796f75206160008301527f726520746865206f776e657200000000000000000000000000000000000000006020830152604082019050919050565b60006123606022836125b8565b91507f596f7520646f206e6f74206861766520616e79206c617374206d6f766520646f60008301527f6e650000000000000000000000000000000000000000000000000000000000006020830152604082019050919050565b60006123c66023836125b8565b91507f596f75206861766520616c726561647920612067616d6520696e697469616c6960008301527f7a656400000000000000000000000000000000000000000000000000000000006020830152604082019050919050565b612428816126ef565b82525050565b60006020820190506124436000830184612134565b92915050565b6000602082019050818103600083015261246281612161565b9050919050565b60006020820190508181036000830152612482816121a1565b9050919050565b600060208201905081810360008301526124a281612207565b9050919050565b600060208201905081810360008301526124c281612247565b9050919050565b600060208201905081810360008301526124e2816122ad565b9050919050565b60006020820190508181036000830152612502816122ed565b9050919050565b6000602082019050818103600083015261252281612353565b9050919050565b60006020820190508181036000830152612542816123b9565b9050919050565b600060e08201905061255e600083018a61241f565b61256b602083018961241f565b6125786040830188612143565b6125856060830187612116565b6125926080830186612125565b61259f60a0830185612152565b6125ac60c0830184612152565b98975050505050505050565b600082825260208201905092915050565b60006125d4826126ef565b91506125df836126ef565b9250827fffffffffffffffffffffffffffffffffffffffffffffffffffffffffffffffff038211156126145761261361271d565b5b828201905092915050565b600061262a826126ef565b9150612635836126ef565b9250817fffffffffffffffffffffffffffffffffffffffffffffffffffffffffffffffff048311821515161561266e5761266d61271d565b5b828202905092915050565b6000612684826126cf565b9050919050565b6000612696826126cf565b9050919050565b60008115159050919050565b60008190506126b78261277b565b919050565b60008190506126ca8261278f565b919050565b600073ffffffffffffffffffffffffffffffffffffffff82169050919050565b6000819050919050565b6000612704826126a9565b9050919050565b6000612716826126bc565b9050919050565b7f4e487b7100000000000000000000000000000000000000000000000000000000600052601160045260246000fd5b7f4e487b7100000000000000000000000000000000000000000000000000000000600052602160045260246000fd5b6004811061278c5761278b61274c565b5b50565b600481106127a05761279f61274c565b5b50565b6127ac81612679565b81146127b757600080fd5b50565b600481106127c757600080fd5b50565b6127d3816126ef565b81146127de57600080fd5b5056fea2646970667358221220dcb5e8e02ac0ec3987ba5d4c789582e3fd64ea65cfde6b83dbafcf3140deebc264736f6c63430008000033",
  "immutableReferences": {},
  "source": "pragma solidity = 0.8.0;\r\nimport './Token.sol';\r\n\r\n/*\r\n                        ROCK PAPER AND SCRISSORS GAME\r\n\r\n*/\r\n\r\ncontract RockPaperScissors {\r\n    uint waitingTime=60;\r\n    enum GameState{ NONE,CREATED, STARTED, FINISHED }\r\n    enum Move{ NONE,ROCK, PAPER, SCISORS }\r\n     struct Game {\r\n        uint256 timeStamp;\r\n        uint256 tokenAmount;\r\n        GameState state;\r\n        //Addresses\r\n        address payable winner;\r\n        address opponent;\r\n        //Moves\r\n        Move heroMove;\r\n        Move opponentMove;\r\n        }\r\n    Game[] gameHistory;\r\n    //Mapping for recreate old move\r\n    mapping(address => Move) lastMove;\r\n    mapping(address => Game) public gameList;\r\n    Game g;\r\n\r\n    /* Creates a new game\r\n       while freezing _tokenAmount\r\n       and add it to the game list\r\n    */\r\n    function newGame() public payable returns(bool){\r\n       privateNewGame(msg.sender,msg.value);\r\n       return true;\r\n    }\r\n\r\n    function joinGame(address _gameOwner) public payable returns(bool){\r\n       privateJoinGame(_gameOwner,msg.sender,msg.value);\r\n       return true;\r\n    }\r\n\r\n    \r\n    function privateNewGame(address _gameOwner,uint256 _tokenAmount) public payable returns(bool){\r\n        require(\r\n        (gameList[_gameOwner].timeStamp+waitingTime<block.timestamp),\"You have already a game initialized\");\r\n        g=Game(block.timestamp,_tokenAmount,GameState.CREATED,payable(0x0),address(0x0),Move.NONE,Move.NONE);\r\n        gameList[_gameOwner]=g;\r\n\r\n        return true;\r\n    }\r\n    function privateJoinGame(address _gameOwner, address _opponent,uint256 _tokenAmount) private returns(bool){\r\n        require(g.state==GameState.CREATED,\"There is no game to join\");\r\n        require(\r\n        (_tokenAmount>=gameList[_gameOwner].tokenAmount),\"You have to send more tokens if you want to play\");\r\n        require(\r\n        (_gameOwner!=_opponent),\"You can not join a game if you are the owner\");\r\n        require(\r\n        (gameList[_gameOwner].opponent==address(0x0)||gameList[_gameOwner].opponent==_opponent),\"You are not allowed to join the game\");\r\n        gameList[_gameOwner].state=GameState.STARTED;\r\n        gameList[_gameOwner].opponent=_opponent;\r\n        gameList[_opponent]=gameList[_gameOwner];\r\n        \r\n\r\n        return true;\r\n    }\r\n\r\n    function move(address _gameOwner,Move _move) public returns(bool){\r\n        require((gameList[_gameOwner].state==GameState.STARTED),\"You do not have a game started\");\r\n        require((gameList[_gameOwner].opponent==msg.sender||msg.sender==_gameOwner),\"You are not playing this game\");\r\n        if (_gameOwner==msg.sender) {\r\n            gameList[_gameOwner].heroMove=_move;\r\n        } else {\r\n            gameList[_gameOwner].opponentMove=_move;\r\n        }\r\n\r\n        Move hMove=gameList[_gameOwner].heroMove;\r\n        Move oMove=gameList[_gameOwner].opponentMove;\r\n        address oAddress=gameList[_gameOwner].opponent;\r\n        //If two moves are saved lets see the winner!\r\n        if (hMove!=Move.NONE&&\r\n            oMove!=Move.NONE) {\r\n            address payable r=payable(result(_gameOwner,oAddress,hMove,oMove));\r\n            gameList[_gameOwner].state=GameState.FINISHED;\r\n            if (r!=address(0x0)){\r\n                gameList[_gameOwner].winner=r;\r\n                releaseTokens(r,gameList[_gameOwner].tokenAmount*2);\r\n            }\r\n            //Add game to game history\r\n            gameHistory.push(gameList[_gameOwner]);\r\n            delete gameList[_gameOwner];\r\n        }\r\n        lastMove[msg.sender]=_move;\r\n        return true;\r\n    }\r\n\r\n     /* ReleaseTokens*/\r\n    function releaseTokens(address payable winner,uint256 _tokenAmount) private returns(bool){\r\n        winner.transfer(_tokenAmount);\r\n        return true;\r\n    }\r\n\r\n    //Decides who wins\r\n    function result(address p1,address p2,Move m1,Move m2) private pure returns(address){\r\n        if(m1==m2){\r\n            return address(0x0);\r\n        }\r\n        else if(m1==Move.ROCK&&\r\n            m2==Move.SCISORS){\r\n            return p1;\r\n        }\r\n        else if(m1==Move.PAPER&&\r\n            m2==Move.ROCK){\r\n            return p1;\r\n        }\r\n        else if(m1==Move.SCISORS&&\r\n            m2==Move.PAPER){\r\n            return p1;\r\n        }\r\n        else{\r\n            return p2;\r\n        }\r\n        \r\n    }\r\n\r\n    //Extras\r\n    function playEachOther(address _gameOwner,address _opponent) public payable returns (bool){\r\n        privateNewGame(_gameOwner,msg.value);\r\n        gameList[_gameOwner].opponent=_opponent;\r\n        return true;\r\n    }\r\n\r\n    function betLastMove(address _gameOwner) public returns (bool){\r\n        require(lastMove[msg.sender]!=Move.NONE,\"You do not have any last move done\");\r\n        move(_gameOwner,lastMove[msg.sender]);\r\n        return true;\r\n    }\r\n}",
  "sourcePath": "C:\\Users\\titiloxx\\Documents\\GitHub\\RockPaperScissors-test-project\\contracts\\RockPaperScissors.sol",
  "compiler": {
    "name": "solc",
    "version": "0.8.0+commit.c7dfd78e.Emscripten.clang"
  },
  "schemaVersion": "3.4.2",
  "updatedAt": "2021-08-21T20:49:42.410Z",
  "networkType": "ethereum",
  "devdoc": {
    "kind": "dev",
    "methods": {},
    "version": 1
  },
  "userdoc": {
    "kind": "user",
    "methods": {},
    "version": 1
  }
}