{
  "contractName": "RockPaperScissors",
  "abi": [
    {
      "inputs": [
        {
          "internalType": "contract Token",
          "name": "_token",
          "type": "address"
        }
      ],
      "stateMutability": "nonpayable",
      "type": "constructor"
    },
    {
      "inputs": [
        {
          "internalType": "address",
          "name": "",
          "type": "address"
        }
      ],
      "name": "gameList",
      "outputs": [
        {
          "internalType": "uint256",
          "name": "timeStamp",
          "type": "uint256"
        },
        {
          "internalType": "uint256",
          "name": "tokenAmount",
          "type": "uint256"
        },
        {
          "internalType": "address",
          "name": "winner",
          "type": "address"
        },
        {
          "internalType": "address",
          "name": "opponent",
          "type": "address"
        }
      ],
      "stateMutability": "view",
      "type": "function",
      "constant": true
    },
    {
      "inputs": [],
      "name": "token",
      "outputs": [
        {
          "internalType": "contract Token",
          "name": "",
          "type": "address"
        }
      ],
      "stateMutability": "view",
      "type": "function",
      "constant": true
    },
    {
      "inputs": [
        {
          "internalType": "uint256",
          "name": "_tokenAmount",
          "type": "uint256"
        }
      ],
      "name": "freezeTokens",
      "outputs": [
        {
          "internalType": "bool",
          "name": "",
          "type": "bool"
        }
      ],
      "stateMutability": "nonpayable",
      "type": "function"
    },
    {
      "inputs": [
        {
          "internalType": "uint256",
          "name": "_tokenAmount",
          "type": "uint256"
        }
      ],
      "name": "releaseTokens",
      "outputs": [
        {
          "internalType": "bool",
          "name": "",
          "type": "bool"
        }
      ],
      "stateMutability": "nonpayable",
      "type": "function"
    },
    {
      "inputs": [
        {
          "internalType": "uint256",
          "name": "_tokenAmount",
          "type": "uint256"
        }
      ],
      "name": "newGame",
      "outputs": [
        {
          "internalType": "bool",
          "name": "",
          "type": "bool"
        }
      ],
      "stateMutability": "nonpayable",
      "type": "function"
    },
    {
      "inputs": [],
      "name": "withDrawTokens",
      "outputs": [
        {
          "internalType": "bool",
          "name": "",
          "type": "bool"
        }
      ],
      "stateMutability": "nonpayable",
      "type": "function"
    }
  ],
  "bytecode": "0x608060405234801561001057600080fd5b50604051610c4d380380610c4d8339818101604052810190610032919061008d565b806000806101000a81548173ffffffffffffffffffffffffffffffffffffffff021916908373ffffffffffffffffffffffffffffffffffffffff16021790555050610111565b600081519050610087816100fa565b92915050565b60006020828403121561009f57600080fd5b60006100ad84828501610078565b91505092915050565b60006100c1826100da565b9050919050565b60006100d3826100b6565b9050919050565b600073ffffffffffffffffffffffffffffffffffffffff82169050919050565b610103816100c8565b811461010e57600080fd5b50565b610b2d806101206000396000f3fe608060405234801561001057600080fd5b50600436106100625760003560e01c80634b0babdd146100675780635ef660dd14610097578063a4adc2f7146100b5578063cde9ef78146100e5578063de1d66d914610115578063fc0c546a14610148575b600080fd5b610081600480360381019061007c919061078a565b610166565b60405161008e91906108f5565b60405180910390f35b61009f610220565b6040516100ac91906108f5565b60405180910390f35b6100cf60048036038101906100ca919061078a565b6103cb565b6040516100dc91906108f5565b60405180910390f35b6100ff60048036038101906100fa919061078a565b610487565b60405161010c91906108f5565b60405180910390f35b61012f600480360381019061012a9190610738565b610665565b60405161013f949392919061096b565b60405180910390f35b6101506106d5565b60405161015d9190610910565b60405180910390f35b60008060009054906101000a900473ffffffffffffffffffffffffffffffffffffffff1673ffffffffffffffffffffffffffffffffffffffff1663a9059cbb33846040518363ffffffff1660e01b81526004016101c49291906108cc565b602060405180830381600087803b1580156101de57600080fd5b505af11580156101f2573d6000803e3d6000fd5b505050506040513d601f19601f820116820180604052508101906102169190610761565b5060019050919050565b600080600160003373ffffffffffffffffffffffffffffffffffffffff1673ffffffffffffffffffffffffffffffffffffffff1681526020019081526020016000206001015414156102a7576040517f08c379a000000000000000000000000000000000000000000000000000000000815260040161029e9061092b565b60405180910390fd5b6000600160003373ffffffffffffffffffffffffffffffffffffffff1673ffffffffffffffffffffffffffffffffffffffff16815260200190815260200160002060405180608001604052908160008201548152602001600182015481526020016002820160009054906101000a900473ffffffffffffffffffffffffffffffffffffffff1673ffffffffffffffffffffffffffffffffffffffff1673ffffffffffffffffffffffffffffffffffffffff1681526020016003820160009054906101000a900473ffffffffffffffffffffffffffffffffffffffff1673ffffffffffffffffffffffffffffffffffffffff1673ffffffffffffffffffffffffffffffffffffffff168152505090506103c28160200151610166565b50600191505090565b60008060009054906101000a900473ffffffffffffffffffffffffffffffffffffffff1673ffffffffffffffffffffffffffffffffffffffff166323b872dd3330856040518463ffffffff1660e01b815260040161042b93929190610895565b602060405180830381600087803b15801561044557600080fd5b505af1158015610459573d6000803e3d6000fd5b505050506040513d601f19601f8201168201806040525081019061047d9190610761565b5060019050919050565b6000426078600160003373ffffffffffffffffffffffffffffffffffffffff1673ffffffffffffffffffffffffffffffffffffffff168152602001908152602001600020600001546104d991906109c1565b10610519576040517f08c379a00000000000000000000000000000000000000000000000000000000081526004016105109061094b565b60405180910390fd5b60006040518060800160405280428152602001848152602001600073ffffffffffffffffffffffffffffffffffffffff168152602001600073ffffffffffffffffffffffffffffffffffffffff168152509050610575836103cb565b5080600160003373ffffffffffffffffffffffffffffffffffffffff1673ffffffffffffffffffffffffffffffffffffffff168152602001908152602001600020600082015181600001556020820151816001015560408201518160020160006101000a81548173ffffffffffffffffffffffffffffffffffffffff021916908373ffffffffffffffffffffffffffffffffffffffff16021790555060608201518160030160006101000a81548173ffffffffffffffffffffffffffffffffffffffff021916908373ffffffffffffffffffffffffffffffffffffffff1602179055509050506001915050919050565b60016020528060005260406000206000915090508060000154908060010154908060020160009054906101000a900473ffffffffffffffffffffffffffffffffffffffff16908060030160009054906101000a900473ffffffffffffffffffffffffffffffffffffffff16905084565b60008054906101000a900473ffffffffffffffffffffffffffffffffffffffff1681565b60008135905061070881610ab2565b92915050565b60008151905061071d81610ac9565b92915050565b60008135905061073281610ae0565b92915050565b60006020828403121561074a57600080fd5b6000610758848285016106f9565b91505092915050565b60006020828403121561077357600080fd5b60006107818482850161070e565b91505092915050565b60006020828403121561079c57600080fd5b60006107aa84828501610723565b91505092915050565b6107bc81610a17565b82525050565b6107cb81610a29565b82525050565b6107da81610a5f565b82525050565b60006107ed601f836109b0565b91507f596f75206e6f74206861766520746f6b656e7320746f207769746864726177006000830152602082019050919050565b600061082d6023836109b0565b91507f596f75206861766520616c726561647920612067616d6520696e697469616c6960008301527f7a656400000000000000000000000000000000000000000000000000000000006020830152604082019050919050565b61088f81610a55565b82525050565b60006060820190506108aa60008301866107b3565b6108b760208301856107b3565b6108c46040830184610886565b949350505050565b60006040820190506108e160008301856107b3565b6108ee6020830184610886565b9392505050565b600060208201905061090a60008301846107c2565b92915050565b600060208201905061092560008301846107d1565b92915050565b60006020820190508181036000830152610944816107e0565b9050919050565b6000602082019050818103600083015261096481610820565b9050919050565b60006080820190506109806000830187610886565b61098d6020830186610886565b61099a60408301856107b3565b6109a760608301846107b3565b95945050505050565b600082825260208201905092915050565b60006109cc82610a55565b91506109d783610a55565b9250827fffffffffffffffffffffffffffffffffffffffffffffffffffffffffffffffff03821115610a0c57610a0b610a83565b5b828201905092915050565b6000610a2282610a35565b9050919050565b60008115159050919050565b600073ffffffffffffffffffffffffffffffffffffffff82169050919050565b6000819050919050565b6000610a6a82610a71565b9050919050565b6000610a7c82610a35565b9050919050565b7f4e487b7100000000000000000000000000000000000000000000000000000000600052601160045260246000fd5b610abb81610a17565b8114610ac657600080fd5b50565b610ad281610a29565b8114610add57600080fd5b50565b610ae981610a55565b8114610af457600080fd5b5056fea2646970667358221220d7912e78c3bf15be9cf9761a7626e44467860a3659facfda2fad4c323f74ac9664736f6c63430008000033",
  "immutableReferences": {},
  "source": "pragma solidity = 0.8.0;\nimport './Token.sol';\n\ncontract RockPaperScissors {\n    Token public token;\n    struct Game {\n        uint256 timeStamp;\n        uint256 tokenAmount;\n        address winner;\n        address opponent;\n        }\n    mapping(address => Game) public gameList;\n    constructor(Token _token){\n        token=_token;\n    }\n\n\n     /* Freeze tokens\n    */\n    function freezeTokens(uint256 _tokenAmount) public returns(bool){\n        token.transferFrom(msg.sender,address(this), _tokenAmount);\n        return true;\n    }\n\n     /* ReleaseTokens\n    */\n    function releaseTokens(uint256 _tokenAmount) public returns(bool){\n        token.transfer(msg.sender, _tokenAmount);\n        return true;\n    }\n\n \n    /* Creates a new game\n       while freezing _tokenAmount\n       and add it to the game list\n    */\n    function newGame(uint256 _tokenAmount) public returns(bool){\n        require(\n        (gameList[msg.sender].timeStamp+120<block.timestamp),\"You have already a game initialized\");\n\n        Game memory _newGame=Game(block.timestamp,_tokenAmount,address(0x0),address(0x0));\n        freezeTokens(_tokenAmount);\n        gameList[msg.sender]=_newGame;\n        return true;\n    }\n\n    function withDrawTokens() public returns(bool){\n        require(gameList[msg.sender].tokenAmount!=0,\"You not have tokens to withdraw\");\n        Game memory game=gameList[msg.sender];\n        releaseTokens(game.tokenAmount);\n        return true;\n    }\n\n}",
  "sourcePath": "C:\\Users\\titiloxx\\Documents\\GitHub\\RockPaperScissors-test-project\\contracts\\RockPaperScissors.sol",
  "compiler": {
    "name": "solc",
    "version": "0.8.0+commit.c7dfd78e.Emscripten.clang"
  },
  "schemaVersion": "3.4.2",
  "updatedAt": "2021-08-14T19:49:17.261Z",
  "networkType": "ethereum",
  "devdoc": {
    "kind": "dev",
    "methods": {},
    "version": 1
  },
  "userdoc": {
    "kind": "user",
    "methods": {},
    "version": 1
  }
}